:020000040000FA
:060000000A128A11122809
:10000800FE00030EF9000408FA000A08FB00831238
:1000180003137F08FC000A128A11DB290A128A11CD
:100028001528F001F101F201F301F401F501F601DF
:1000380083120313E901EA01EB01EC01ED01EE0182
:100048008313A0308400EB300A128A11F8270A12B1
:100058008A11831790308400BE300A128A11F8275B
:1000680083010A128A11482C70088312031369024B
:10007800D8007108031C710A6A02D9008316031399
:100088005C085D0403196228053083120313A0007D
:100098000030A1005908A3005808A2000A128A11CA
:1000A80054250A128A11831203132008D400210848
:1000B800D5000030D51BFF30D60030295A088312EE
:1000C8000313580283160313E9005B08031C5B0A39
:1000D80083120313590283160313EA0083120313CE
:1000E800590883160313DB00831203135808831679
:1000F8000313DA008312031358085904031D8E28CA
:10010800003083160313E8000030E7000030E600F3
:100118000030D62883160313650883120313C6001C
:1001280083160313660883120313C7008316031389
:10013800670883120313C800831603136808831221
:100148000313C9005808CA005908CB000030CB1B5C
:10015800FF30CC00CD004A08C6074B0803184B0FE8
:10016800B628B728C7074C0803184C0FBC28BD2869
:10017800C8074D0803184D0AC90749088316031311
:10018800E80083120313480883160313E700831259
:100198000313470883160313E60083120313460864
:1001A80083160313E500831203135908C700580880
:1001B800C6000310C60DC70D0310C60DC70D4608AF
:1001C800CE004708CF00831603136A08831203136F
:1001D800A10083160313690883120313A0000D30CE
:1001E800A2000030A3000A128A15B3270A128A1146
:1001F800831203132108D1002008D00083160313AB
:10020800660883120313A10083160313650883127B
:100218000313A0000030A200A3000A128A15B32716
:100228000A128A11831203132108D3002008D2006E
:1002380050084E07C60051080318510A4F07C70057
:1002480052084607D40053080318530A4707D50035
:10025800D601D51BD6035608D7005708A300560861
:10026800A2005508A1005408A000FF30A700FF30E5
:10027800A600FF30A5000130A4000030AB0000301C
:10028800AA000030A900FF30A8000A128A116B26C4
:100298000A128A11831203132308D7002208D600F2
:1002A8002108D5002008D400D71B8C295708031D26
:1002B80069295608031D69295508031D6929013054
:1002C8005402031D6729031C8C290130BC0000302F
:1002D800BD005708C1005608C0005508BF005408A3
:1002E800BE000A128A11D3240A128A11023083121C
:1002F8000313BC000030BD000030C1000030C00056
:100308000030BF000030BE000A128A11D324080052
:10031800D71FB8290130BC000030BD000030C10033
:100328000030C0000030BF000030BE000A128A1141
:10033800D3240A128A11023083120313BC0000303E
:10034800BD005409BE005509BF005609C000570931
:10035800C100BE0A0319BF0A0319C00A0319C10A5A
:100368000A128A11D32408000130BC000030BD00F5
:100378000030C1000030C0000030BF000030BE00B7
:100388000A128A11D3240A128A1102308312031323
:10039800BC000030BD000030C1000030C00000309B
:1003A800BF000030BE000A128A11D32408008B1A3D
:1003B8000B1D232A83160313E101E10A8312031399
:1003C8006D080319162A7508803AFF0080307F02ED
:1003D800031DF0292D3074020318FD298316031319
:1003E8004E087002F7007408A03E84007708831353
:1003F800072A831603134E087002F7007408633E39
:1004080084007708831780007308D1007208D00031
:100418007108CF007008CE000130F4070318F50A00
:100428000030F507013083160313DE070318DF0ACF
:100438000030DF073C308312031381000B118B1946
:100448000B1CDB2A0608F7007708FD007D08F7007B
:1004580003300310F70CFF3E031D2D2A77080339DC
:10046800F8007808F600BB2A7603031D3D2A013000
:100478005F2A02307606031DC92A0230F700770882
:10048800EE004A2A7608031D5A2AEE010130831627
:100498000313D207003003180130D30700300318C4
:1004A8000130D4070030031801306E2A0330760675
:1004B800031DC92A0330F7007708EE00FF308316C2
:1004C8000313D207FF30031CD307FF30031CD407E4
:1004D800FF30031CD507C92A7608031D752AEE01CB
:1004E800952A03307606031DC92A0330F7007708DA
:1004F800EE00013083160313D207003003180130D1
:10050800D307003003180130D40700300318013036
:10051800A12A02307606031DA32A0230F7007708C5
:10052800EE00FF3083160313D207FF30031CD307F6
:10053800FF30031CD407FF30031CD507C92A7603F4
:10054800031DC92A0130F7007708EE000130831631
:100558000313D207003003180130D3070030031803
:100568000130D407003003180130D507C92A6E08B6
:10057800003A0319382A013A0319462A033A03199B
:10058800702A013A03198D2AC92A831603135209BE
:10059800F0005309F1005409F2005509F300F00A7C
:1005A8000319F10A0319F20A0319F30A0B107C085C
:1005B8008312FF007B088A007A088400790E830082
:1005C800FE0E7E0E090083120313B9002F30B1000E
:1005D8003108B4000130AE07FF302E0784000A123C
:1005E8008A112E260A128A11B1003108BA003A0877
:1005F8000319B42B25303A0603190E2B3A08B1001B
:10060800390884003108831380000130B1003108B3
:10061800B907EE2AB5010130AE07FF302E07840076
:100628000A128A112E260A128A11BA00003A0319F0
:10063800B42B643A0319242B0D3A0319242BEE2A00
:100648003408840083130008B700840A0008B8003F
:100658000230B1003108B407B81F3B2B0330B1009A
:100668003108B504B709B809B70A0319B80ABA01B5
:10067800BA0A3A08B1003107013E84000A128A1109
:100688002E260A128A11B2000A128A112E260A127E
:100698008A11B30033083802031D542B320837027D
:1006A800031C5E2B0130B1003108BA0705303A0649
:1006B800031D3D2B3508033903196D2B2D30B1006F
:1006C800390884003108831380000130B1003108F3
:1006D800B9073A08B1003108B600FF30B100310857
:1006E800B607360A0319EE2A0A30A8000030A90016
:1006F8003608B1003107013E84000A128A112E26FD
:100708000A128A11A0000A128A112E260A128A11C8
:10071800A1003808A3003708A2000A128A11F025A0
:100728000A128A11831203132108AB002008AA00B9
:100738000A128A1180270A128A11831203132808C1
:10074800303EB2003208BA003A08B10039088400D5
:100758003108831380000130B1003108B907712BCB
:100768003908840083138001080083120313B7013A
:10077800B01FCB2BAD09AE09AF09B009AD0A0319FB
:10078800AE0A0319AF0A0319B00AB701B70AB41FB2
:10079800DC2BB109B209B309B409B10A0319B20AC9
:1007A8000319B30A0319B40A0130B5003508B706AE
:1007B8000030BB000030BA000030B9000030B8008B
:1007C80030082F042E042D040319312CB601B60A63
:1007D800B01BFC2B0130B5000310AD0DAE0DAF0DF5
:1007E800B00DB50BF02B0130B5003508B607EC2B72
:1007F8000130B5000310B80DB90DBA0DBB0DB50B1E
:10080800FE2B30083402031D132C2F083302031D5E
:10081800132C2E083202031D132C2D083102031C41
:10082800242C2D08B1022E08031C2E0FB2022F080B
:10083800031C2F0FB3023008031C300FB402381406
:1008480001300310B00CAF0CAE0CAD0CFF3E031D15
:10085800252C0130B602031DFC2B370803193F2C49
:10086800B809B909BA09BB09B80A0319B90A0319B9
:10087800BA0A0319BB0A3B08B0003A08AF003908A6
:10088800AE003808AD0008008316031381128111E9
:1008980007308104861283160317891283160313FF
:1008A800861386140615861506168316031709116E
:1008B8008910091089118312031386168B16831663
:1008C80003130C100B178B17183096008B150A1290
:1008D8008A159B270A128A110A128A11B4270A124A
:1008E8008A110A128A11DE270A128A11013083122C
:1008F8000313BC000030BD000030C1000030C00050
:100908000030BF000030BE000A128A11D3240A1238
:100918008A11023083120313BC000030BD0000307E
:10092800C1000030C0000030BF000030BE000A1215
:100938008A11D3240A128A110A128A1579270A12EF
:100948008A118312031320082104031DB12C0A12F3
:100958008A114C270A128A11C52C0A128A111627E5
:100968000A128A118312031369082007BB006A0858
:1009780003186A0A2107BC000A128A11A7260A125C
:100988008A118316031361080319A02C0A128A110D
:1009980038200A128A1183160313E101A02C83124E
:1009A8000313C11B0800C11BE92C4108031D0800E3
:1009B8004008031D080001303F02031DE72C0030EA
:1009C8003E02031DE72C03180800410840043F04B9
:1009D8003E040319462D2030C2000030C300003009
:1009E800C4000030C5000030B0000030AF00003057
:1009F800AE00FF30AD004108A3004008A2003F0848
:100A0800A1003E08A0000030A7000030A60000307A
:100A1800A500DF30A4000A128A11AF250A128A1134
:100A2800831203132308B4002208B3002108B2007C
:100A38002008B1000A128A11B9230A128A118312F6
:100A480003132D08C2072E0803182E0F2C2D2D2D49
:100A5800C3072F0803182F0F322D332DC407300872
:100A68000318300AC5074508C1004408C0004308F8
:100A7800BF004208BE00462D3E08950008003E080B
:100A88009B0008003D08003A03194B2D532D3C08E4
:100A9800013A0319402D033A0319432D532D080039
:100AA80083120313A601A11F602DA009A109A00AA2
:100AB8000319A10AA601A60AA31F6B2DA209A3095F
:100AC800A20A0319A30A0130A4002408A606A70154
:100AD800A801200821040319A22DA501A50AA11B1C
:100AE800812D01300310A00DA10DFF3E031D762DB1
:100AF8000130A4002408A507732D01300310A70DA9
:100B0800A80DFF3E031D822D21082302031D8E2DF3
:100B180020082202031C972D2008A2022108031C8A
:100B2800A303A302271401300310A10CA00CFF3E5D
:100B3800031D982D0130A502031D812D26080319D8
:100B4800AA2DA709A809A70A0319A80A2808A10015
:100B58002708A0000800003083120313AC000030FF
:100B6800AB000030AA000030A900201CCF2D2408BB
:100B7800A907250803110318013E031DAA07260823
:100B880003110318013E031DAB07270803110318BF
:100B9800013E031DAC070130A8000310A40DA50DEC
:100BA800A60DA70DA80BD12D01300310A30CA20C84
:100BB800A10CA00CFF3E031DD92D230822042104FB
:100BC8002004031DB92D2C08A3002B08A2002A0815
:100BD800A1002908A000080083120313A501A6019B
:100BE800200821040319292EA701A70AA11B082EF2
:100BF80001300310A00DA10DFF3E031DFD2D013096
:100C0800A4002408A707FA2D01300310A50DA60D8E
:100C1800FF3E031D092E21082302031D152E20085F
:100C28002202031C1E2E2008A2022108031CA30373
:100C3800A302251401300310A10CA00CFF3E031DD4
:100C48001F2E0130A702031D082E2608A100250823
:100C5800A000080006308A000408840A82070034CD
:100C6800013400340A34003464340034E834033482
:100C78001034273453346534743450346F34693441
:100C88006E3474343A3420342534643420340D34CA
:100C98000A340034463469346D34203464346F3493
:100CA8002034743465347334743465342034003437
:100CB8004B3470343A3420342534643420342D34A1
:100CC8003E34203400342534643420340034831214
:100CD80003132B08803AFF002308803A7F02031D84
:100CE8007F2E22082A02031D7F2E21082902031DB8
:100CF8007F2E2008280203188A2E2B08A3002A0812
:100D0800A2002908A1002808A00008002308803AAA
:100D1800FF002708803A7F02031D9C2E2608220226
:100D2800031D9C2E25082102031D9C2E2408200249
:100D3800031808002708A3002608A2002508A10018
:100D48002408A0000800831203133B08BD003C08D8
:100D5800BE000030BE1BFF30BF00C0006C0840065C
:100D6800031DC02E6B083F06031DC02E6A083E06F1
:100D7800031DC02E69083D06031908000B30BD008D
:100D88003D08AE003C08B0003B08AF0041300A12F5
:100D98008A11E7220A128A1141300A128A11E026C2
:100DA800831203133B08E9003C08EA000030EA1B01
:100DB800FF30EB00EC00080083120313A3002308A4
:100DC800840083130008031908002308840000081E
:100DD8000A128A15D6270A128A11831203132308C6
:100DE80084000D3083130006031D002F0A300A12F9
:100DF8008A15D6270A128A1183120313230884003E
:100E08000A3083130006031D0F2F0D300A128A15AE
:100E1800D6270A128A11013083120313A20022086E
:100E2800A307E32E003083120313071A0130831639
:100E3800031360060319472F6008031D252F01308F
:100E4800262F003083120313A200220883160313EF
:100E5800E000031083120313871A031400300318E9
:100E68000130A200A3010310A20DA30D2208FF3E2A
:100E7800A40023080318013EFF3EA5002408A00093
:100E88002508A100080083120313A001A10108008E
:100E9800013083120313BC000030BD000030C100D4
:100EA8000030C0000030BF000030BE000A128A11B6
:100EB800D3240A128A11023083120313BC000030B3
:100EC800BD000030C1000030C0000030BF0000305D
:100ED800BE000A128A11D3240A128A110A128A152C
:100EE80088270A128A11003083120313BB00BC0042
:100EF8000A128A11A7260800831203132808290456
:100F08000319AF2FAD01AD0AA91B962F01300310AD
:100F1800A80DA90DFF3E031D8B2F0130AC002C0836
:100F2800AD07882F29082B02031D9C2F28082A02A9
:100F3800031CA42F2808AA022908031CAB03AB0230
:100F480001300310A90CA80CFF3E031DA52F01308A
:100F5800AD02031D962F2B08A9002A08A800080037
:100F68008316031387140715FF30920083120313A7
:100F78001708F0390C3897001D08F0390C389D0017
:100F88009501CF3097059B018C10FC309205121506
:100F98008C1CCC2F83160313871007118316031795
:100FA800081283160313851205138312031385127F
:100FB80005130800831203130608A000033003106A
:100FC800A00CFF3E031DE32F20080339A1002108D0
:100FD800EE00003083160313D5000030D400003033
:100FE800D3000030D200080064008001840A04069F
:080FF800031900340406F92F6F
:101EE200831203138C1E772F1A080800FF30080094
:101EF20003108312031387190314003003180130EF
:101F0200A200A3012208A0002308A10008000030BB
:101F120083160313D5000030D4000030D300003004
:101F2200D2000030F3000030F2000030F100003047
:101F3200F000080040308316031399001815181298
:101F420083120313981718169812831603130C1290
:101F52008C12181383120313181383160313981287
:101F62009816080083120313A401A501201CBF2F99
:101F72002208A4070318A50A2308A50701300310A5
:101F8200A20DA30DFF3E031DC02F01300310A10CB3
:101F9200A00CFF3E031DC72F20082104031DB72FED
:101FA2002508A1002408A000080083120313A10041
:101FB200831203130C1AF32F981CE72F83160313B3
:101FC200981298168312031318121816181DF12F5F
:101FD2001A08A000200883160313E300981298162B
:101FE2006400D92F210899003C30A00020088316F4
:0E1FF2000313E40000000000E40BFB2F0800C6
:04400E00F3ECFFFED2
:00000001FF
