:020000040000FA
:060000000A128A11122809
:10000800FE00030E83120313BC000408BD000A0897
:10001800BE007F08BF000A128A11782A0A128A11C4
:1000280015280A128A1118270A128A11DA000A12E8
:100038008A1119270A128A11DB008317903084006D
:10004800D7300A128A1108270A128A111030840040
:1000580057300A128A1108270A128A11831341306D
:1000680084005A300A128A11082783010A128A1159
:100078003D288316031381128111073081048612EB
:10008800831603178912831603138613861406151D
:100098008615061683160317091189100910891188
:1000A8008312031386168B16831603130C100B1773
:1000B8008B17183096008B150A128A11B6260A1269
:1000C8008A110A128A1170260A128A110A128A11D2
:1000D8009A260A128A11013083160313A0000030F1
:1000E800A1000030A5000030A4000030A3000030BB
:1000F800A2000A128A11E7250A128A110230831611
:100108000313A0000030A1000030A5000030A400B7
:100118000030A3000030A2000A128A11E7250A1253
:100128008A110A128A1110270A128A1183160313D8
:10013800BB003B08CB0061304B06031D95280A1213
:100148008A11E3260A128A11003083120313C400AD
:100158000030C3000030C2000030C100D301D40118
:10016800013083160313BB003B0883120313D50029
:100178000130DA070318DB0A0030DB07E8308316A2
:100188000313A0000330A1000A128A11F6260A12EE
:100198008A11831203138612831203135408803AB8
:1001A800FF0080307F02031DDB288C305302031CC4
:1001B800D02883120313D5018616D301D401193030
:1001C80083160313BB003B08AE00831203135B08BE
:1001D80083160313B000831203135A0883160313FC
:1001E800AF00C1300A128A116B230A128A11C1307A
:1001F8000A128A1149250A128A1183120313540814
:10020800803AFF0080307F02031D0C2947305302DB
:1002180003185D29243083160313BB003B08AE0086
:10022800831203135308903E840083170008831633
:100238000313AF00B001AF1BB003C1300A128A111B
:100248006B230A128A11C1300A128A1149250A122F
:100258008A11013083120313D3070318D40A00301C
:10026800D4070129243083160313BB003B08AE00D2
:10027800831203135308CA3E8400831700088316A9
:100288000313AF00B001AF1BB003C1300A128A11CB
:100298006B230A128A11C1300A128A1149250A12DF
:1002A8008A11013083120313D3070318D40A0030CC
:1002B800D407831203135408803AFF0080307F026A
:1002C800031D68298C305302031C36290B30831612
:1002D8000313BB003B08AE00C1300A128A116B231E
:1002E8000A128A11C1300A128A1149250A128A1182
:1002F8009528831203134508AE004608AF00470847
:10030800B0004808B1004908AE024A08031C4A0F69
:100318008E298F29AF024B08031C4B0F942995296E
:10032800B0024C08031C4C0F9A299B29B1023108D2
:10033800B5003008B4002F08B3002E08B200003012
:10034800A3000030A2000130A1003230A0005A08FA
:10035800F0005B08F1000030F11BFF30F200F30001
:100368003508F7003408F6003308F5003208F400C1
:100378000A128A11CC240A128A11730883120313F1
:10038800A7007208A6007108A5007008A4000A1248
:100398008A113D240A128A11831203132308B90013
:1003A8002208B8002108B7002008B6003908F30071
:1003B8003808F2003708F1003608F000FF30F7007F
:1003C800FF30F600FF30F5000130F4000030FB008C
:1003D8000030FA000030F900FF30F8000A128A11E4
:1003E800CE260A128A1183120313B91B2B2A390845
:1003F800031D0A2A3808031D0A2A3708031D0A2A7A
:1004080001303602031D082A031C2B2A0130F00094
:100418000030F1003908F5003808F4003708F30017
:100428003608F2000A128A1143260A128A1102308B
:10043800F0000030F1000030F5000030F40000302A
:10044800F3000030F2000A128A1143260800B91F8F
:10045800572A0130F0000030F1000030F50000307C
:10046800F4000030F3000030F2000A128A1143262B
:100478000A128A110230F0000030F10083120313CF
:100488003609F2003709F3003809F4003909F50094
:10049800F20A0319F30A0319F40A0319F50A0A12EE
:1004A8008A11432608000130F0000030F1000030C6
:1004B800F5000030F4000030F3000030F2000A12BA
:1004C8008A1143260A128A110230F0000030F10026
:1004D8000030F5000030F4000030F3000030F20086
:1004E8000A128A11432608008B1A0B1DB42A0A1215
:1004F8008A117D210A128A118312031355080319E0
:10050800B12A5408803AFF0080307F02031D8E2AEA
:10051800463053020318982A8312031341084902EC
:10052800BA005308903E9F2A8312031341084902D8
:10053800BA005308CA3E84003A08831780004C0862
:10054800C4004B08C3004A08C2004908C100013072
:10055800D3070318D40A0030D4073C3081000B11AC
:100568008B190B1C602B0608BA003A08C00040081B
:10057800BA0003300310BA0CFF3E031DBE2A3A0826
:100588000339BB003B08D600422B5603031DCE2A75
:100598000130EE2A02305606031D502B0230BA00F5
:1005A8003A08D700DB2A5608031DE92AD70101308B
:1005B800CD07003003180130CE0700300318013092
:1005C800CF07003003180130FB2A03305606031DFD
:1005D800502B0330BA003A08D700FF30CD07FF3060
:1005E800031CCE07FF30031CCF07FF30031CD007C6
:1005F800502B5608031D022BD701202B033056061B
:10060800031D502B0330BA003A08D7000130CD073C
:10061800003003180130CE07003003180130CF072F
:100628000030031801302A2B02305606031D2C2BEC
:100638000230BA003A08D700FF30CD07FF30031C5C
:10064800CE07FF30031CCF07FF30031CD007502B09
:100658005603031D502B0130BA003A08D700013069
:10066800CD07003003180130CE07003003180130E1
:10067800CF07003003180130D007502B5708003A35
:100688000319C92A013A0319D72A033A0319FD2A7B
:10069800013A0319182B502B4D09C9004E09CA00FD
:1006A8004F09CB005009CC00C90A0319CA0A03191B
:1006B800CB0A0319CC0A0B103F08FF003E088A003A
:1006C8003D0884003C0E8300FE0E7E0E0900831652
:1006D8000313B900AF30B1003108B4000130AE07E0
:1006E800FF302E0784000A128A1116260A128A1170
:1006F800B1003108BA003A080319382C25303A06F7
:100708000319922B3A08B100390884003108831381
:1007180080000130B1003108B907722BB5010130F2
:10072800AE07FF302E0784000A128A1116260A1215
:100738008A11BA00003A0319382C643A0319A82B15
:100748000D3A0319A82B722B340884008313000870
:10075800B700840A0008B8000230B1003108B407B5
:10076800B81FBF2B0330B1003108B504B709B80969
:10077800B70A0319B80ABA01BA0A3A08B100310728
:10078800013E84000A128A1116260A128A11B20042
:100798000A128A1116260A128A11B300330838027F
:1007A800031DD82B32083702031CE22B0130B1009D
:1007B8003108BA0705303A06031DC12B350803393D
:1007C8000319F12B2D30B100390884003108831347
:1007D80080000130B1003108B9073A08B10031088A
:1007E800B600FF30B1003108B607360A0319722B7C
:1007F8000A30A8000030A9003608B1003107013ED0
:1008080084000A128A1116260A128A11A0000A12F6
:100818008A1116260A128A11A1003808A30037087F
:10082800A2000A128A110B250A128A1183160313D1
:100838002108AB002008AA000A128A117F250A1293
:100848008A11831603132808303EB2003208BA0012
:100858003A08B10039088400310883138000013058
:10086800B1003108B907F52B3908840083138001DA
:10087800080083120313A901A31F4F2CA009A10983
:10088800A209A309A00A0319A10A0319A20A0319B4
:10089800A30AA901A90AA71F602CA409A509A609EA
:1008A800A709A40A0319A50A0319A60A0319A70A7E
:1008B8000130FD007D08A9060030AD000030AC0015
:1008C8000030AB000030AA002308220421042004D1
:1008D8000319B52CA801A80AA31B802C0130FD0020
:1008E8000310A00DA10DA20DA30DFD0B742C01305A
:1008F800FD007D08A807702C0130FD000310AA0D2B
:10090800AB0DAC0DAD0DFD0B822C23082702031D8A
:10091800972C22082602031D972C21082502031D67
:10092800972C20082402031CA82C2008A4022108C4
:10093800031C210FA5022208031C220FA60223086C
:10094800031C230FA7022A1401300310A30CA20CC6
:10095800A10CA00CFF3E031DA92C0130A802031D09
:10096800802C29080319C32CAA09AB09AC09AD09C5
:10097800AA0A0319AB0A0319AC0A0319AD0A2D0810
:10098800A3002C08A2002B08A1002A08A000080038
:100998000030FC000030FB000030FA000030F900A5
:1009A800701CEA2C7408F907750803110318013E36
:1009B800031DFA07760803110318013E031DFB0700
:1009C800770803110318013E031DFC070130F800E6
:1009D8000310F40DF50DF60DF70DF80BEC2C0130A6
:1009E8000310F30CF20CF10CF00CFF3E031DF42C79
:1009F8007308720471047004031DD42C7C08F3007E
:100A08007B08F2007A08F1007908F00008008316E4
:100A18000313A601A701200821040319442DA501E9
:100A2800A50AA11B232D01300310A00DA10DFF3E27
:100A3800031D182D0130A4002408A507152D013029
:100A48000310A60DA70DFF3E031D242D2108230228
:100A5800031D302D20082202031C392D2008A20274
:100A68002108031CA303A302261401300310A10CC0
:100A7800A00CFF3E031D3A2D0130A502031D232DB6
:100A88002708A1002608A000080083160313A30066
:100A9800230884008313000803190800230884002E
:100AA80000080A128A11B3250A128A118316031341
:100AB800230884000D3083130006031D692D0A30B6
:100AC8000A128A11B3250A128A11831603132308FE
:100AD80084000A3083130006031D782D0D300A1296
:100AE8008A11B3250A128A11013083160313A20052
:100AF8002208A3074C2D8316031328082904031979
:100B0800AE2DAD01AD0AA91B952D01300310A80D1E
:100B1800A90DFF3E031D8A2D0130AC002C08AD073E
:100B2800872D29082B02031D9B2D28082A02031C48
:100B3800A32D2808AA022908031CAB03AB02013025
:100B48000310A90CA80CFF3E031DA42D0130AD0213
:100B5800031D952D2B08A9002A08A8000800831654
:100B68000313A100831203130C1AD42D981CC42D4F
:100B78008316031398129816831203131812181663
:100B8800181DD22D1A0883160313A00020088312FB
:100B98000313D80083160313981298166400B62D11
:100BA8008316031321088312031399003C3083161C
:100BB8000313A000200883120313D90000000000CB
:100BC800D90BE22D080083160313A51B0800A51BEB
:100BD800082E2508031D08002408031D08000130FD
:100BE8002302031DFB2D00302202031DFB2D0318D9
:100BF8000800082E22088312031395000800220813
:100C0800831203139B0008002108003A03190D2ED4
:100C1800152E2008013A0319FE2D033A0319032E55
:100C2800152E080006308A000408840A820700345A
:100C3800013400340A34003464340034E8340334B2
:100C480010342734463469346D34203464346F34B6
:100C58002034743465347334743465342034003487
:100C68004B3470343A3420342534643420342D34F1
:100C78003E34203400342534643420340034F51BE9
:100C88000800F51B622E7508031D08007408031D73
:100C9800080001307302031D552E00307202031D37
:100CA800552E03180800622E72088312031395004C
:100CB80008007208831203139B0008007108003AA9
:100CC8000319672E6F2E7008013A0319582E033A3C
:100CD80003195D2E6F2E080083160313871407155A
:100CE800FF309200831203131708F0390C3897006D
:100CF8001D08F0390C389D009501CF3097059B01F0
:100D08008C10FC30920512158C1C882E8316031348
:100D18008710071183160317081283160313851209
:100D28000513831203138512051308008312031396
:100D3800060883160313A00003300310A00CFF3E1F
:100D4800031DA12E20080339A100210883120313D3
:100D5800D7000030D0000030CF000030CE00003087
:100D6800CD00080040308316031399001815181297
:100D780083120313981718169812831603130C126C
:100D88008C12181383120313181383160313981263
:100D9800981608007B08803AFF007308803A7F02A3
:100DA800031DE02E72087A02031DE02E71087902F5
:100DB800031DE02E700878020318080008000030B0
:100DC80083120313D0000030CF000030CE00003073
:100DD800CD000030CC000030CB000030CA0000301D
:100DE800C900080083160313200883120313C500E3
:100DF80083160313210883120313C6000030C61B91
:100E0800FF30C700C800080064008001840A040697
:100E1800031900340406092F831203138C1E162F9E
:0C0E28001A080800FF3008001A340034DB
:04400E00F3ECFFFED2
:00000001FF
