:020000040000FA
:060000000A128A11122809
:10000800FE00030E83120313CE000408CF000A0873
:10001800D0007F08D1000A128A11F52B0A128A1122
:10002800152883135330840070300A128A11F5277B
:100038000A128A11D6308400E0300A128A11F52794
:100048000A128A11831790308400BF300A128A116D
:10005800F5270A128A11103084003E300A128A11DC
:10006800F52783010A128A1139288316031381128E
:1000780081110730810486128316031789128316AB
:10008800031386138614061586150616831603179A
:1000980009118910091089118312031386168B160A
:1000A800831603130C100B178B17183096008B153B
:1000B8000A128A1526250A128A1183160313A0012B
:1000C800A101A20124300A128A1512250A128A11E6
:1000D8000A128A157B250A128A110A128A153E25E8
:1000E8000A128A11013083160313BC000030BD00C8
:1000F8000030C1000030C0000030BF000030BE003A
:100108000A128A11EF260A128A1102308316031383
:10011800BC000030BD000030C1000030C00000301D
:10012800BF000030BE000A128A11EF260A128A1197
:100138000A128A15F3240A128A1183160313200857
:1001480021040319E52820308312031386060A12B6
:100158008A15DC240A128A1183160313D3000310AC
:10016800530CD400540883160317BE0000300A123B
:100178008A15EB240A128A11BF3083160313AE00C6
:100188000130AF002930D3005308B000831603179D
:100198003E0883160313D400D5015408B10055084E
:1001A800B2000A128A11F2240A128A11BF30831689
:1001B8000313A2000130A3000A128A1526270A1287
:1001C8008A110A128A15E3240A128A118316031364
:1001D800D300530883160317E20075306206031D27
:1001E800E1290A128A15FF240A128A1100308312A3
:1001F8000313D6000030D5000030D4000030D300FF
:10020800E701E801013083160313D3005308831272
:100218000313E900643083160313BC000030BD00EB
:100228000A128A15A5250A128A1183120313861247
:10023800831203136808803AFF0080307F02031D91
:1002480027295A306702031C1C2983120313E9016A
:100258008616E701E801D83083160313AE00013093
:10026800AF003630D3005308B0000430B10000307E
:10027800B2000A128A11F2240A128A11D83083169F
:100288000313A2000130A3000A128A1526270A12B6
:100298008A11831203136808803AFF0080307F02B6
:1002A800031D58292E3067020318B929D830831640
:1002B8000313AE000130AF004130D3005308B00043
:1002C800831203136708903E84008317000883167F
:1002D8000313B100B201B11BB2030A128A11F2244E
:1002E8000A128A11D83083160313A2000130A30022
:1002F8000A128A1526270A128A110130831203135B
:10030800E7070318E80A0030E8074D29D8308316B4
:100318000313AE000130AF004130D3005308B000E2
:10032800831203136708E33E8400831700088316CB
:100338000313B100B201B11BB2030A128A11F224ED
:100348000A128A11D83083160313A2000130A300C1
:100358000A128A1526270A128A11013083120313FA
:10036800E7070318E80A0030E80783120313680850
:10037800803AFF0080307F02031DC4295A3067028B
:10038800031C8A29D83083160313AE000130AF004E
:100398001B30D3005308B0000A128A11F2240A1243
:1003A8008A11D83083160313A2000130A3000A1261
:1003B8008A1526270A128A119C2877306206031D9F
:1003C800FB29831203135708643E83160313BC00EA
:1003D8008312031358080318013E003E83160313C3
:1003E800BD000A128A15A5250A128A119C287330A5
:1003F8006206031D152A8312031357089C3E8316B1
:100408000313BC008312031358080318013EFF3E70
:1004180083160313BD000A128A15A5250A128A112C
:100428009C2820306206031D1F2A0A128A153B26C3
:100438000A128A119C2865306206031D392A831224
:1004480003135708323E83160313BC0083120313A9
:1004580058080318013E003E83160313BD000A1214
:100468008A15A5250A128A119C2864306206031D84
:10047800532A831203135708CE3E83160313BC0076
:100488008312031358080318013EFF3E8316031313
:10049800BD000A128A15A5250A128A119C28303037
:1004A8006206031D622A003083160313BC00BD00D8
:1004B8000A128A15A5250A128A119C286B30620631
:1004C800031D6D2A013083120313E5000030E60096
:1004D8009C286C306206031D9C2883120313E501D7
:1004E800E6019C28831203135B085702CA005C08C4
:1004F800031C5C0A5802CB006508660403199C2A91
:100508000530F0000030F1004B08F3004A08F20013
:100518000A128A15A7270A128A1170088312031370
:10052800C6007108C7000030C71BFF30C8004A2B3F
:1005380063084A02EE006408031C640A4B02EF00D9
:100548004B08E4004A08E3004A084B04031DB62A96
:10055800003083160313DF000030DE000030DD00BA
:100568000030FE2A831603135C0883120313B800B5
:10057800831603135D0883120313B900831603134C
:100588005E0883120313BA00831603135F088312ED
:100598000313BB004A08BC004B08BD000030BD1B5C
:1005A800FF30BE00BF003C08B8073D0803183D0FE8
:1005B800DE2ADF2AB9073E0803183E0FE42AE52A97
:1005C800BA073F0803183F0ABB073B088316031303
:1005D800DF00831203133A0883160313DE00831225
:1005E8000313390883160313DD0083120313380835
:1005F80083160313DC00831203134B08B9004A085F
:10060800B8000310B80DB90D0310B80DB90D3808AE
:10061800C0003908C1006F08F1006E08F0000D3005
:10062800F2000030F3000A128A155A250A128A11BC
:10063800710883120313C3007008C20083160313E2
:100648005D08F1005C08F0000030F200F3000A12C7
:100658008A155A250A128A11710883120313C500D4
:100668007008C40042084007B80043080318430A4A
:100678004107B90044083807C60045080318450A69
:100688003907C700C801C71BC8034808C90049087B
:10069800F3004808F2004708F1004608F000FF3070
:1006A800F700FF30F600FF30F5000130F4000030AD
:1006B800FB000030FA000030F900FF30F8000A12A1
:1006C8008A156F260A128A11730883120313C90048
:1006D8007208C8007108C7007008C600C91BA62B9D
:1006E8004908031D832B4808031D832B4708031D56
:1006F800832B01304602031D812B031CA62B0130DE
:10070800AE000030AF004908B3004808B2004708FF
:10071800B1004608B0000A128A1174270A128A1119
:10072800023083120313AE000030AF000030B30074
:100738000030B2000030B1000030B0000A128A1157
:1007480074270800C91FD22B0130AE000030AF005B
:100758000030B3000030B2000030B1000030B0000B
:100768000A128A1174270A128A110230831203139B
:10077800AE000030AF004609B0004709B100480993
:10078800B2004909B300B00A0319B10A0319B20A41
:100798000319B30A0A128A11742708000130AE003F
:1007A8000030AF000030B3000030B2000030B100BC
:1007B8000030B0000A128A1174270A128A11023016
:1007C80083120313AE000030AF000030B3000030D6
:1007D800B2000030B1000030B0000A128A1174274C
:1007E80008008B1A0B1D3B2C0A128A1176220A125A
:1007F8008A1183120313690803192E2C6808803A9A
:10080800FF0080307F02031D0B2C2D306702031878
:10081800152C8312031353085B02CC006708903E23
:100828001C2C8312031353085B02CC006708E33EB9
:1008380084004C08831780005E08D6005D08D50048
:100848005C08D4005B08D3000130E7070318E80A06
:100858000030E807013083160313DA070318DB0AB0
:100868000030DB073C308312031381000B118B1916
:100878000B1CE72C0608CC004C08D2005208CC0010
:1008880003300310CC0CFF3E031D452C4C080339E4
:10089800CD004D08EA00C92C6A03031D552C013010
:1008A800752C02306A06031DD72C0230CC004C0888
:1008B800EB00622C6A08031D702CEB010130DF0786
:1008C800003003180130E007003003180130E10759
:1008D800003003180130822C03306A06031DD72C20
:1008E8000330CC004C08EB00FF30DF07FF30031C5F
:1008F800E007FF30031CE107FF30031CE207D72C99
:100908006A08031D892CEB01A72C03306A06031D16
:10091800D72C0330CC004C08EB000130DF07003047
:1009280003180130E007003003180130E1070030F8
:1009380003180130B12C02306A06031DB32C0230B3
:10094800CC004C08EB00FF30DF07FF30031CE0074A
:10095800FF30031CE107FF30031CE207D72C6A03B2
:10096800031DD72C0130CC004C08EB000130DF0709
:10097800003003180130E007003003180130E107A8
:10098800003003180130E207D72C6B08003A03192E
:10099800502C013A03195E2C033A0319842C013AAE
:1009A80003199F2CD72C5F09DB006009DC00610963
:1009B800DD006209DE00DB0A0319DC0A0319DD0A1F
:1009C8000319DE0A0B105108FF0050088A004F086F
:1009D80084004E0E8300FE0E7E0E0900B130831691
:1009E8000313B3003308B6000130B007FF303007F7
:1009F80084000A128A1500200A128A11B3003308EB
:100A0800BB003B080319CA2D25303B0603191C2DD2
:100A18003B08B3002E08840083172F1C8313330868
:100A280080000130AE070318AF0A0030AF07F82C7A
:100A3800B7010130B007FF30300784000A128A1569
:100A480000200A128A11BB00003A0319CA2D643A21
:100A58000319322D0D3A0319322DF82C360884006B
:100A680083130008B900840A0008BA000230B300F2
:100A78003308B607BA1F492D0330B3003308B7044B
:100A8800B909BA09B90A0319BA0ABB01BB0A3B0872
:100A9800B3003307013E84000A128A1500200A12A7
:100AA8008A11B4000A128A1500200A128A11B500A8
:100AB80035083A02031D622D34083902031C6C2DD7
:100AC8000130B3003308BB0705303B06031D4B2D2F
:100AD8003708033903197F2D2D30B3002E08840001
:100AE80083172F1C8313330880000130AE070318C7
:100AF800AF0A0030AF073B08B3003308B800FF3037
:100B0800B3003308B807380A0319F82C0A30A800CC
:100B18000030A9003808B3003307013E84000A12E8
:100B28008A1500200A128A11A0000A128A150020CC
:100B38000A128A11A1003A08A3003908A2000A1271
:100B48008A15A9260A128A11831603132108AB00F5
:100B58002008AA000A128A1507260A128A11831683
:100B680003132808303EB4003408BB003B08B30028
:100B78002E08840083172F1C83133308800001304C
:100B8800AE070318AF0A0030AF07832D2E08840084
:100B980083172F1C83138001080083160313B701E2
:100BA800B01FE32DAD09AE09AF09B009AD0A0319AD
:100BB800AE0A0319AF0A0319B00AB701B70AB41F7E
:100BC800F42DB109B209B309B409B10A0319B20A7B
:100BD8000319B30A0319B40A0130B5003508B7067A
:100BE8000030BB000030BA000030B9000030B80057
:100BF80030082F042E042D040319492EB601B60A15
:100C0800B01B142E0130B5000310AD0DAE0DAF0DA5
:100C1800B00DB50B082E0130B5003508B607042E07
:100C28000130B5000310B80DB90DBA0DBB0DB50BE9
:100C3800162E30083402031D2B2E2F083302031DF5
:100C48002B2E2E083202031D2B2E2D083102031CD9
:100C58003C2E2D08B1022E08031C2E0FB2022F08BD
:100C6800031C2F0FB3023008031C300FB4023814D2
:100C780001300310B00CAF0CAE0CAD0CFF3E031DE1
:100C88003D2E0130B602031D142E37080319572EC6
:100C9800B809B909BA09BB09B80A0319B90A031985
:100CA800BA0A0319BB0A3B08B0003A08AF00390872
:100CB800AE003808AD00080083120313A901A31F72
:100CC800722EA009A109A209A309A00A0319A10A61
:100CD8000319A20A0319A30AA901A90AA71F832EA7
:100CE800A409A509A609A709A40A0319A50A0319AD
:100CF800A60A0319A70A0130FD007D08A9060030DD
:100D0800AD000030AC000030AB000030AA00230872
:100D18002204210420040319D82EA801A80AA31B21
:100D2800A32E0130FD000310A00DA10DA20DA30DEF
:100D3800FD0B972E0130FD007D08A807932E01308A
:100D4800FD000310AA0DAB0DAC0DAD0DFD0BA52ECE
:100D580023082702031DBA2E22082602031DBA2ED5
:100D680021082502031DBA2E20082402031CCB2EBD
:100D78002008A4022108031C210FA5022208031C35
:100D8800220FA6022308031C230FA7022A140130EE
:100D98000310A30CA20CA10CA00CFF3E031DCC2E2B
:100DA8000130A802031DA32E29080319E62EAA095B
:100DB800AB09AC09AD09AA0A0319AB0A0319AC0AB5
:100DC8000319AD0A2D08A3002C08A2002B08A100C6
:100DD8002A08A000080083160313C11B0800C11BC2
:100DE800052F4108031D08004008031D08000130B5
:100DF8003F02031D032F00303E02031D032F03187B
:100E08000800410840043F043E040319662F2030BF
:100E1800C2000030C3000030C4000030C5000030FC
:100E2800B0000030AF000030AE00FF30AD00410828
:100E3800A3004008A2003F08A1003E08A00000301F
:100E4800A7000030A6000030A500DF30A4000A1279
:100E58008A1566270A128A11831603132308B40019
:100E68002208B3002108B2002008B1000A128A1132
:100E7800D1250A128A11831603132D08C2072E08DA
:100E880003182E0F482F492FC3072F0803182F0FB9
:100E98004E2F4F2FC40730080318300AC5074508DE
:100EA800C1004408C0004308BF004208BE00662FC6
:100EB8003E0883120313950008003E0883120313AB
:100EC8009B0008003D08003A03196B2F732F3C085C
:100ED800013A03195C2F033A0319612F732F080095
:100EE80083120313B31B0800B31B8A2F3308031D97
:100EF80008003208031D080001303102031D882F45
:100F080000303002031D882F03180800330832040C
:100F1800310430040319E72F2030B4000030B50045
:100F28000030B6000030B7000030A3000030A20047
:100F38000030A100FF30A0003308F3003208F200AF
:100F48003108F1003008F0000030F7000030F600FA
:100F58000030F500DF30F4000A128A15E7260A127D
:100F68008A11730883120313A7007208A600710878
:100F7800A5007008A4000A128A1160260A128A11B4
:100F8800831203132008B40721080318210FCD2F5B
:100F9800CE2FB50722080318220FD32FD42FB60758
:100FA80023080318230AB7073708B3003608B20026
:100FB8003508B1003408B000E72F30089500080064
:100FC80030089B0008002F08003A0319EC2FF42F73
:100FD8002E08013A0319E12F033A0319E42FF42FDD
:100FE800080064008001840A04060319003404061A
:020FF800F62FD2
:1010000008308A000408840A82070034013400345E
:101010000A34003464340034E834033410342734A0
:1010200053346534743450346F3469346E347434EA
:101030003A3420342534643420340D340A340034F6
:10104000463469346D34203464346F34203474345D
:10105000653473347434653420340034533450347C
:101060004934523478343A342034253464342034CA
:101070000D340A3400344B3470343A34203425347F
:10108000643420342D343E34203400342534643428
:0410900020340034D4
:1019AE008316031314180800D72C0A128A15D7248D
:1019BE008312031313080800831203138C1EE92CE1
:1019CE001A080800FF30080083160313A000200831
:1019DE00831203139300080083160313141CFC2CAC
:1019EE000130A0000030A1000800A001A1010800F4
:1019FE00003083120313E2000030E1000030E000FB
:101A0E000030DF000030DE000030DD000030DC0092
:101A1E000030DB00080083160313A3008712231D7A
:101A2E001C2D220894008715202D200822049400D6
:101A3E0087112308210483120313940008004030F9
:101A4E00831603139900181518128312031398178F
:101A5E0018169812831603130C128C121813831275
:101A6E000313181383160313981298160800831283
:101A7E000313060883160313A00003300310A00CF3
:101A8E00FF3E031D452D20080339A10021088312B6
:101A9E000313EB000030E2000030E1000030E00004
:101AAE000030DF000800F401F501701C642D72088F
:101ABE00F4070318F50A7308F50701300310F20D49
:101ACE00F30DFF3E031D652D01300310F10CF00CDC
:101ADE00FF3E031D6C2D70087104031D5C2D7508EF
:101AEE00F1007408F000080083160313871407151D
:101AFE00FF309200831203131708F0390C38970049
:101B0E001D08F0390C389D009501CF3097059B01CB
:101B1E008C10FC30920512158C1C932D831603131A
:101B2E0087100711831603170812831603138512E5
:101B3E00051383120313851205130800BF30831695
:101B4E000313AE000030AF000B30BE003E08B000F5
:101B5E003D08B2003C08B1000A128A11F2240A12A2
:101B6E008A15BF3083160313A2000030A3000A1299
:101B7E008A152627831603133C0883120313D700F6
:101B8E00831603133D0883120313D8000030D81BAD
:101B9E00FF30D900DA00080083160313A100831268
:101BAE0003130C1AF42D981CE42D831603139812AC
:101BBE0098168312031318121816181DF22D1A08F0
:101BCE0083160313A000200883120313EC00831660
:101BDE000313981298166400D62D8316031321084A
:101BEE008312031399003C3083160313A0002008C0
:101BFE0083120313ED0000000000ED0B022E08000F
:101C0E0083160313280829040319362EAD01AD0AD5
:101C1E00A91B1D2E01300310A80DA90DFF3E031D9B
:101C2E00122E0130AC002C08AD070F2E29082B0206
:101C3E00031D232E28082A02031C2B2E2808AA0275
:101C4E002908031CAB03AB0201300310A90CA80C2E
:101C5E00FF3E031D2C2E0130AD02031D1D2E2B0841
:101C6E00A9002A08A8000800013083160313BC003F
:101C7E000030BD000030C1000030C0000030BF0099
:101C8E000030BE000A128A11EF260A128A1502309F
:101C9E0083160313BC000030BD000030C1000030BD
:101CAE00C0000030BF000030BE000A128A11EF26BD
:101CBE000A128A150A128A15FF240A128A15003092
:101CCE0083160313BC00BD000A128A15A525080051
:101CDE007B08803AFF007308803A7F02031D812E35
:101CEE0072087A02031D812E71087902031D812E5E
:101CFE007008780203188C2E7B08F3007A08F20025
:101D0E007908F1007808F00008007308803AFF00A7
:101D1E007708803A7F02031D9E2E76087202031DFD
:101D2E009E2E75087102031D9E2E740870020318F4
:101D3E0008007708F3007608F2007508F1007408C1
:101D4E00F000080083160313A501A6012008210444
:101D5E000319E22EA701A70AA11BC12E0130031001
:101D6E00A00DA10DFF3E031DB62E0130A4002408C8
:101D7E00A707B32E01300310A50DA60DFF3E031DC0
:101D8E00C22E21082302031DCE2E20082202031C80
:101D9E00D72E2008A2022108031CA303A302251498
:101DAE0001300310A10CA00CFF3E031DD82E0130F4
:101DBE00A702031DC12E2608A1002508A0000800B9
:101DCE000030FC000030FB000030FA000030F9005B
:101DDE00701C052F7408F907750803110318013ECE
:101DEE00031DFA07760803110318013E031DFB07B6
:101DFE00770803110318013E031DFC070130F8009C
:101E0E000310F40DF50DF60DF70DF80B072F01303D
:101E1E000310F30CF20CF10CF00CFF3E031D0F2F10
:101E2E007308720471047004031DEF2E7C08F30016
:101E3E007B08F2007A08F1007908F000080083169A
:101E4E000313220884008317231C8313000803192D
:101E5E000800220884008317231C831300080A122B
:101E6E008A15D3250A128A158316031322088400B5
:101E7E008317231C83130D300006031D4C2F0A30CD
:101E8E000A128A15D3250A128A15831603132208FD
:101E9E0084008317231C83130A300006031D5D2F55
:101EAE000D300A128A15D3250A128A1501308316AF
:101EBE000313A2070318A30A0030A307262F00302E
:101ECE0083160313AC000030AB000030AA000030C4
:101EDE00A900201C862F2408A90725080311031822
:101EEE00013E031DAA07260803110318013E031D18
:101EFE00AB07270803110318013E031DAC07013081
:101F0E00A8000310A40DA50DA60DA70DA80B882FD4
:101F1E0001300310A30CA20CA10CA00CFF3E031D5C
:101F2E00902F2308220421042004031D702F2C0857
:101F3E00A3002B08A2002A08A1002908A00008006F
:101F4E00F601F11FB12FF009F109F00A0319F10A98
:101F5E00F601F60AF31FBC2FF209F309F20A031970
:101F6E00F30A0130F4007408F606F701F801700860
:101F7E0071040319F32FF501F50AF11BD22F01306D
:101F8E000310F00DF10DFF3E031DC72F0130F400BD
:101F9E007408F507C42F01300310F70DF80DFF3E3E
:101FAE00031DD32F71087302031DDF2F70087202F9
:101FBE00031CE82F7008F2027108031CF303F302EE
:101FCE00771401300310F10CF00CFF3E031DE92FC6
:101FDE000130F502031DD22F76080319FB2FF709E6
:101FEE00F809F70A0319F80A7808F1007708F000E3
:021FFE000800D9
:04400E00F3ECFFFED2
:00000001FF
