:020000040000FA
:060000000A128A11122809
:10000800FE00030EF9000408FA000A08FB00831238
:1000180003137F08FC000A128A110B2B0A128A119B
:100028001528F001F101F201F301F401F501F601DF
:100038008313593084006F300A128A153D270A123B
:100048008A11BA308400C3300A128A153D270A1271
:100058008A11831790308400EC300A128A153D27E4
:1000680083010A128A113828831603138112811119
:100078000730810486128316031789128316031327
:100088008613861406158615061683160317091196
:100098008910091089118312031386168B1683168B
:1000A80003130C100B178B17183096008B150A12B8
:1000B8008A157F270A128A110A128A11B3270A128F
:1000C8008A110A128A1567270A128A1101308312C7
:1000D8000313BC000030BD000030C1000030C00078
:1000E8000030BF000030BE000A128A1170250A12C3
:1000F8008A11023083120313BC000030BD000030A7
:10010800C1000030C0000030BF000030BE000A123D
:100118008A1170250A128A110A128A1545270A12AD
:100128008A118312031320082104031DA1280A122F
:100138008A111F270A128A11B5280A128A118727DD
:100148000A128A118312031359082007D2005A0889
:1001580003185A0A2107D3000A128A15D8270A1247
:100168008A118316031342080319C2280A128A1136
:1001780006220A128A1183160313C2017208031990
:1001880055297108803AFF0080307F02031DCE2870
:100198005B307002031C5529F20183120313861683
:1001A800F001F1012930D8005808AE000430AF0042
:1001B8000030B000A0300A128A110F240A128A11E6
:1001C800A0300A128A11E9260A128A117108803AA7
:1001D800FF0080307F02031DF3282E3070020318C1
:1001E8003829343083120313D8005808AE00700839
:1001F800BE3E840083170008AF00B001AF1BB003F8
:10020800A0300A128A110F240A128A11A0300A1289
:100218008A11E9260A128A110130F0070318F10A37
:100228000030F107EA28343083120313D800580845
:10023800AE007008633E840083170008AF00B00169
:10024800AF1BB003A0300A128A110F240A128A11B8
:10025800A0300A128A11E9260A128A110130F00721
:100268000318F10A0030F1077108803AFF00803066
:100278007F02031D41295A307002031C17291B30C5
:1002880083120313D8005808AE00A0300A128A114E
:100298000F240A128A11A0300A128A11E9260A12BA
:1002A8008A110A128A1535270A128A118312031332
:1002B800D800580883160313B90075303906031D92
:1002C80089290A128A1554270A128A1100308316BE
:1002D8000313BD000030BC000030BB000030BA0082
:1002E800F001F101013083120313D8005808F2001D
:1002F8006430D2000030D3000A128A15D8270A12B7
:100308008A11831203138612902877303906031D49
:100318009D29831203135908643ED2005A08031812
:10032800013E003ED3000A128A15D8270A128A1104
:10033800902873303906031DB12983120313590815
:100348009C3ED2005A080318013EFF3ED3000A1211
:100358008A15D8270A128A11902820303906031DD9
:10036800BB290A128A111F270A128A1190286530A0
:100378003906031DCF29831203135908323ED200D0
:100388005A080318013E003ED3000A128A15D827DE
:100398000A128A11902864303906031DE329831252
:1003A80003135908CE3ED2005A080318013EFF3EF7
:1003B800D3000A128A15D8270A128A1190283030D9
:1003C8003906031DF229003083120313D200D3002B
:1003D8000A128A15D8270A128A1190286B30390612
:1003E800031DFD29013083120313E7000030E800E4
:1003F80090286C303906031D902883120313E701F7
:10040800E8019028831203135D085902CC005E08A6
:10041800031C5E0A5A02CD00670868040319272ADC
:100428004D08C7004C08C6000310C60DC70D0310C1
:10043800C60DC70D4608CE004708CF000030CF1BB9
:10044800FF30D000602A65084C02ED006608031CE6
:10045800660A4D02EE004D08E6004C08E5004D081E
:10046800C7004C08C6000310C60DC70D0310C60D03
:10047800C70D4608C8004708C9006E08A1006D08E6
:10048800A0000D30A2000030A3000A128A11DD2757
:100498000A128A11831203132108CB002008CA000C
:1004A8004A084807CE004B0803184B0A4907CF00F3
:1004B800D001CF1BD0035008D1005108A300500829
:1004C800A2004F08A1004E08A000FF30A700FF308F
:1004D800A600FF30A5000130A4000030AB000030BA
:1004E800AA000030A900FF30A8000A128A11AD2620
:1004F8000A128A11831203132308D1002208D0009C
:100508002108CF002008CE00D11BBC2A5108031DAA
:10051800992A5008031D992A4F08031D992A01306A
:100528004E02031D972A031CBC2A0130BC00003070
:10053800BD005108C1005008C0004F08BF004E0858
:10054800BE000A128A1170250A128A11023083121B
:100558000313BC000030BD000030C1000030C000F3
:100568000030BF000030BE000A128A117025080052
:10057800D11FE82A0130BC000030BD000030C100A6
:100588000030C0000030BF000030BE000A128A11DF
:1005980070250A128A11023083120313BC0000303E
:1005A800BD004E09BE004F09BF005009C0005109E7
:1005B800C100BE0A0319BF0A0319C00A0319C10AF8
:1005C8000A128A11702508000130BC000030BD00F5
:1005D8000030C1000030C0000030BF000030BE0055
:1005E8000A128A1170250A128A1102308312031323
:1005F800BC000030BD000030C1000030C000003039
:10060800BF000030BE000A128A11702508008B1A3C
:100618000B1D582B83160313C201C20A7208031953
:10062800532B7108803AFF0080307F02031D1E2B78
:100638002D30700203182A2B831603133A088312ED
:1006480003135D02F7007008BE3E332B83160313B5
:100658003A08831203135D02F7007008633E8400B2
:10066800770883178000600883160313BD00831280
:1006780003135F0883160313BC00831203135E0879
:1006880083160313BB00831203135D088316031339
:10069800BA000130F0070318F10A0030F1073C30C6
:1006A8008312031381000B118B190B1C042C0608F1
:1006B800F7007708FD007D08F70003300310F70CFA
:1006C800FF3E031D622B77080339F8007808F30012
:1006D800E62B7303031D722B0130922B0230730635
:1006E800031DF42B0230F7007708F4007F2B730802
:1006F800031D8D2BF4010130E10700300318013090
:10070800E207003003180130E30700300318013016
:100718009F2B03307306031DF42B0330F700770873
:10072800F400FF30E107FF30031CE207FF30031C31
:10073800E307FF30031CE407F42B7308031DA62B03
:10074800F401C42B03307306031DF42B0330F700A8
:100758007708F4000130E107003003180130E207A0
:10076800003003180130E307003003180130CE2BA6
:1007780002307306031DD02B0230F7007708F4000F
:10078800FF30E107FF30031CE207FF30031CE307DB
:10079800FF30031CE407F42B7303031DF42B013013
:1007A800F7007708F4000130E10700300318013042
:1007B800E207003003180130E30700300318013066
:1007C800E407F42B7408003A03196D2B013A031956
:1007D8007B2B033A0319A12B013A0319BC2BF42BE9
:1007E8006109DD006209DE006309DF006409E000D9
:1007F800DD0A0319DE0A0319DF0A0319E00A0B10E0
:100808007C08FF007B088A007A088400790E830040
:10081800FE0E7E0E090083120313BB002F30B300B7
:100828003308B6000130AE07FF302E0784000A12E5
:100838008A1170260A128A11B3003308BC003C08DA
:100848000319DC2C25303C060319362C3C08B30070
:100858003B0884003308831380000130B300330859
:10086800BB07162CB7010130AE07FF302E078400F6
:100878000A128A1170260A128A11BC00003A03195A
:10088800DC2C643A03194C2C0D3A03194C2C162C09
:100898003608840083130008B900840A0008BA00E7
:1008A8000230B3003308B607BA1F632C0330B30015
:1008B8003308B704B909BA09B90A0319BA0ABC0155
:1008C800BC0A3C08B3003307013E84000A128A11AF
:1008D80070260A128A11B4000A128A1170260A12A6
:1008E8008A11B50035083A02031D7C2C34083902F8
:1008F800031C862C0130B3003308BC0705303C06C6
:10090800031D652C370803390319952C2D30B300C6
:100918003B0884003308831380000130B300330898
:10092800BB073C08B3003308B800FF30B3003308F6
:10093800B807380A0319162C0A30A8000030A90095
:100948003808B3003307013E84000A128A11702662
:100958000A128A11A0000A128A1170260A128A1134
:10096800A1003A08A3003908A2000A128A11322607
:100978000A128A11831203132108AB002008AA0067
:100988000A128A1153270A128A118312031328089C
:10099800303EB4003408BC003C08B3003B08840077
:1009A8003308831380000130B3003308BB07992C48
:1009B8003B08840083138001080083120313B701E6
:1009C800B01FF32CAD09AE09AF09B009AD0A031980
:1009D800AE0A0319AF0A0319B00AB701B70AB41F60
:1009E800042DB109B209B309B409B10A0319B20A4D
:1009F8000319B30A0319B40A0130B5003508B7065C
:100A08000030BB000030BA000030B9000030B80038
:100A180030082F042E042D040319592DB601B60AE7
:100A2800B01B242D0130B5000310AD0DAE0DAF0D78
:100A3800B00DB50B182D0130B5003508B607142DCB
:100A48000130B5000310B80DB90DBA0DBB0DB50BCB
:100A5800262D30083402031D3B2D2F083302031DB9
:100A68003B2D2E083202031D3B2D2D083102031C9D
:100A78004C2D2D08B1022E08031C2E0FB2022F0890
:100A8800031C2F0FB3023008031C300FB4023814B4
:100A980001300310B00CAF0CAE0CAD0CFF3E031DC3
:100AA8004D2D0130B602031D242D37080319672D7B
:100AB800B809B909BA09BB09B80A0319B90A031967
:100AC800BA0A0319BB0A3B08B0003A08AF00390854
:100AD800AE003808AD00080083120313C11B0800DC
:100AE800C11B862D4108031D08004008031D08008E
:100AF80001303F02031D842D00303E02031D842D6A
:100B080003180800410840043F043E040319E32D7C
:100B18002030C2000030C3000030C4000030C500DF
:100B28000030B0000030AF000030AE00FF30AD0044
:100B38004108A3004008A2003F08A1003E08A00009
:100B48000030A7000030A6000030A500DF30A40068
:100B58000A128A11F1250A128A1183120313230833
:100B6800B4002208B3002108B2002008B1000A121C
:100B78008A11E1240A128A11831203132D08C2076D
:100B88002E0803182E0FC92DCA2DC3072F080318C6
:100B98002F0FCF2DD02DC40730080318300AC507F2
:100BA8004508C1004408C0004308BF004208BE0011
:100BB800E32D3E08950008003E089B0008003D080C
:100BC800003A0319E82DF02D3C08013A0319DD2DF0
:100BD800033A0319E02DF02D0800003083120313A7
:100BE800AC000030AB000030AA000030A900201C87
:100BF800112E2408A907250803110318013E031D17
:100C0800AA07260803110318013E031DAB0727088E
:100C180003110318013E031DAC070130A80003109F
:100C2800A40DA50DA60DA70DA80B132E01300310BA
:100C3800A30CA20CA10CA00CFF3E031D1B2E230825
:100C4800220421042004031DFB2D2C08A3002B08DB
:100C5800A2002A08A1002908A00008008312031393
:100C6800A501A6012008210403196B2EA701A70AD4
:100C7800A11B4A2E01300310A00DA10DFF3E031D3C
:100C88003F2E0130A4002408A7073C2E0130031092
:100C9800A50DA60DFF3E031D4B2E21082302031DA3
:100CA800572E20082202031C602E2008A2022108C9
:100CB800031CA303A302251401300310A10CA00CEC
:100CC800FF3E031D612E0130A702031D4A2E260890
:100CD800A1002508A000080006308A000408840A3C
:100CE80082070034013400340A3400346434003498
:100CF800E8340334103427345334653474345034AE
:100D08006F3469346E3474343A342034253464349E
:100D180020340D340A340034463469346D342034B8
:100D280064346F3420347434653473347434653403
:100D3800203400344B3470343A342034253464344D
:100D480020342D343E3420340034253464342034A7
:100D58000034831203132B08803AFF002308803ADB
:100D68007F02031DC12E22082A02031DC12E21085D
:100D78002902031DC12E200828020318CC2E2B0897
:100D8800A3002A08A2002908A1002808A00008003A
:100D98002308803AFF002708803A7F02031DDE2ED1
:100DA80026082202031DDE2E25082102031DDE2E41
:100DB80024082002031808002708A3002608A20018
:100DC8002508A1002408A000080083120313A3002B
:100DD80023088400831300080319080023088400EB
:100DE80000080A128A15B0270A128A1183120313FF
:100DF800230884000D3083130006031D092F0A30D1
:100E08000A128A15B0270A128A11831203132308BB
:100E180084000A3083130006031D182F0D300A12B0
:100E28008A15B0270A128A11013083120313A2000F
:100E38002208A307EC2E013083120313BC000030F4
:100E4800BD000030C1000030C0000030BF000030DD
:100E5800BE000A128A1170250A128A110230831202
:100E68000313BC000030BD000030C1000030C000DA
:100E78000030BF000030BE000A128A1170250A1225
:100E88008A110A128A1554270A128A11003083120D
:100E98000313D200D3000A128A15D8270800831238
:100EA8000313280829040319822FAD01AD0AA91BD1
:100EB800692F01300310A80DA90DFF3E031D5E2FF9
:100EC8000130AC002C08AD075B2F29082B02031D4D
:100ED8006F2F28082A02031C772F2808AA0229083E
:100EE800031CAB03AB0201300310A90CA80CFF3E96
:100EF800031D782F0130AD02031D692F2B08A900AF
:100F08002A08A8000800003083120313071A0130CA
:100F18006B060319B02F6B08031D942F0130952F12
:100F28000030A2002208EB000310871A03140030D7
:100F380003180130A200A3010310A20DA30D22087B
:100F4800FF3EA40023080318013EFF3EA500240825
:100F5800A0002508A1000800A001A101080083162F
:100F6800031387140715FF30920083120313170821
:100F7800F0390C3897001D08F0390C389D009501A0
:100F8800CF3097059B018C10FC30920512158C1CF4
:100F9800CB2F831603138710071183160317081224
:100FA8008316031385120513831203138512051381
:100FB800080083120313A401A501201CE92F2208AD
:100FC800A4070318A50A2308A50701300310A20DDA
:100FD800A30DFF3E031DEA2F01300310A10CA00C46
:100FE800FF3E031DF12F20082104031DE12F2508D2
:080FF800A1002408A00008007C
:101E6A00831203138C1E3B2F1A080800FF30080048
:101E7A0064008001840A04060319003404063E2F14
:101E8A000310831203138719031400300318013057
:101E9A00A200A3012208A0002308A1000800003024
:101EAA0083120313E4000030E3000030E200003044
:101EBA00E1000030E0000030DF000030DE000030DA
:101ECA00DD000800831203130608A0000330031084
:101EDA00A00CFF3E031D6C2F20080339A100210826
:101EEA00F4000030E4000030E3000030E20000308B
:101EFA00E1000800403083160313990018151812E0
:101F0A0083120313981718169812831603130C12C8
:101F1A008C121813831203131813831603139812BF
:101F2A00981608000B3083120313BD003D08AE005B
:101F3A005C08B2005B08B1005A08B0005908AF004B
:101F4A003E300A128A110F240A128A153E300A12EA
:101F5A008A11E926080083120313A10083120313CE
:101F6A000C1ACD2F981CC12F83160313981298169A
:101F7A008312031318121816181DCB2F1A08A00063
:101F8A002008F50083160313981298166400B32FDD
:101F9A00210899003C30A0002008F600000000004B
:101FAA00F60BD32F0800831203135208D4005308E8
:101FBA00D5000030D51BFF30D600D7005C08570685
:101FCA00031DF12F5B085606031DF12F5A0855060B
:101FDA00031DF12F59085406031908005208D900A5
:101FEA005308DA000030DA1BFF30DB00DC000A128B
:061FFA008A15972708007C
:04400E00F3ECFFFED2
:00000001FF
