:020000040000FA
:060000000A128A11122809
:10000800FE00030E83120313C2000408C3000A088B
:10001800C4007F08C5000A128A1167290A128A11CA
:1000280015288313473084006C300A128A11C527BB
:100038000A128A11831790308400D7300A128A1165
:10004800C5270A128A111030840057300A128A1103
:10005800C52783010A128A113128831603138112D6
:1000680081110730810486128316031789128316BB
:1000780003138613861406158615061683160317AA
:1000880009118910091089118312031386168B161A
:10009800831603130C100B178B17183096008B154B
:1000A8000A128A1173270A128A110A128A112D2735
:1000B8000A128A110A128A1157270A128A11013064
:1000C80083160313BC000030BD000030C1000030AF
:1000D800C0000030BF000030BE000A128A114A2456
:1000E8000A128A11023083160313BC000030BD00C7
:1000F8000030C1000030C0000030BF000030BE003A
:100108000A128A114A240A128A110A128A11CD2760
:100118000A128A1183160313C6004608D6006130F6
:100128005606031D89280A128A11A0270A128A1165
:10013800003083120313D6000030D5000030D400FD
:100148000030D300E501E601013083160313C60031
:10015800460883120313E700643083160313A000D4
:100168000030A1000A128A11B3270A128A118312D9
:1001780003138612831203136608803AFF00803047
:100188007F02031DC9288C306502031CBE28831218
:100198000313E7018616E501E601193083160313F8
:1001A800C6004608AE004030B2000030B100003052
:1001B800B0000030AF00CC300A128A115A220A125D
:1001C8008A11CC300A128A115A260A128A1183120D
:1001D80003136608803AFF0080307F02031DF6286B
:1001E8004730650203184729243083160313C600D5
:1001F8004608AE00831203136508903E84008317F7
:10020800000883160313AF00B001AF1BB003CC3056
:100218000A128A115A220A128A11CC300A128A1139
:100228005A260A128A11013083120313E5070318AC
:10023800E60A0030E607EB28243083160313C600CD
:100248004608AE00831203136508CA3E840083176C
:10025800000883160313AF00B001AF1BB003CC3006
:100268000A128A115A220A128A11CC300A128A11E9
:100278005A260A128A11013083120313E50703185C
:10028800E60A0030E607831203136608803AFF0087
:1002980080307F02031D52298C306502031C2029FF
:1002A8000B3083160313C6004608AE00CC300A1282
:1002B8008A115A220A128A11CC300A128A115A2635
:1002C8000A128A1189288B1A0B1DA3290A128A116E
:1002D80050250A128A118312031367080319A029EB
:1002E8006608803AFF0080307F02031D7D29463072
:1002F8006502031887298312031353085B02C000A1
:100308006508903E8E298312031353085B02C000D0
:100318006508CA3E84004008831780005E08D6003E
:100328005D08D5005C08D4005B08D3000130E50700
:100338000318E60A0030E6073C3081000B118B19E0
:100348000B1C4F2A0608C0004008C6004608C0001B
:1003580003300310C00CFF3E031DAD2940080339CC
:10036800C1004108E800312A6803031DBD29013096
:10037800DD2902306806031D3F2A0230C00040080C
:10038800E900CA296808031DD829E9010130DF07F7
:10039800003003180130E007003003180130E1078E
:1003A800003003180130EA2903306806031D3F2A8C
:1003B8000330C0004008E900FF30DF07FF30031CAE
:1003C800E007FF30031CE107FF30031CE2073F2A68
:1003D8006808031DF129E9010F2A03306806031D87
:1003E8003F2A0330C0004008E9000130DF07003031
:1003F80003180130E007003003180130E10700302E
:1004080003180130192A02306806031D1B2A02301E
:10041800C0004008E900FF30DF07FF30031CE00799
:10042800FF30031CE107FF30031CE2073F2A680383
:10043800031D3F2A0130C0004008E9000130DF07F2
:10044800003003180130E007003003180130E107DD
:10045800003003180130E2073F2A6908003A0319FF
:10046800B829013A0319C629033A0319EC29013AB4
:100478000319072A3F2A5F09DB006009DC006109CC
:10048800DD006209DE00DB0A0319DC0A0319DD0A54
:100498000319DE0A0B104508FF0044088A004308C8
:1004A8008400420E8300FE0E7E0E0900831603139D
:1004B800BB00AF30B3003308B6000130AE07FF30E1
:1004C8002E0784000A128A1100270A128A11B30023
:1004D8003308BC003C080319272B25303C060319B8
:1004E800812A3C08B3003B0884003308831380004A
:1004F8000130B3003308BB07612AB7010130AE07EA
:10050800FF302E0784000A128A1100270A128A1166
:10051800BC00003A0319272B643A0319972A0D3AAD
:100528000319972A612A3608840083130008B90042
:10053800840A0008BA000230B3003308B607BA1FAD
:10054800AE2A0330B3003308B704B909BA09B90AA7
:100558000319BA0ABC01BC0A3C08B3003307013EC0
:1005680084000A128A1100270A128A11B4000A129A
:100578008A1100270A128A11B50035083A02031DAC
:10058800C72A34083902031CD12A0130B3003308C2
:10059800BC0705303C06031DB02A37080339031988
:1005A800E02A2D30B3003B08840033088313800011
:1005B8000130B3003308BB073C08B3003308B80068
:1005C800FF30B3003308B807380A0319612A0A3024
:1005D800A8000030A9003808B3003307013E8400A2
:1005E8000A128A1100270A128A11A0000A128A1117
:1005F80000270A128A11A1003A08A3003908A200AC
:100608000A128A111C260A128A118316031321085A
:10061800AB002008AA000A128A1190260A128A1131
:10062800831603132808303EB4003408BC003C0885
:10063800B3003B0884003308831380000130B30003
:100648003308BB07E42A3B088400831380010800B1
:1006580083160313B701B01F3E2BAD09AE09AF09CE
:10066800B009AD0A0319AE0A0319AF0A0319B00A93
:10067800B701B70AB41F4F2BB109B209B309B409BE
:10068800B10A0319B20A0319B30A0319B40A0130EB
:10069800B5003508B7060030BB000030BA0000309E
:1006A800B9000030B80030082F042E042D040319B7
:1006B800A42BB601B60AB01B6F2B0130B50003108E
:1006C800AD0DAE0DAF0DB00DB50B632B0130B50000
:1006D8003508B6075F2B0130B5000310B80DB90D0A
:1006E800BA0DBB0DB50B712B30083402031D862BD8
:1006F8002F083302031D862B2E083202031D862B7A
:100708002D083102031C972B2D08B1022E08031C5B
:100718002E0FB2022F08031C2F0FB3023008031C40
:10072800300FB402381401300310B00CAF0CAE0C0B
:10073800AD0CFF3E031D982B0130B602031D6F2B35
:1007480037080319B22BB809B909BA09BB09B80A9D
:100758000319B90A0319BA0A0319BB0A3B08B000FE
:100768003A08AF003908AE003808AD000800831217
:100778000313A901A31FCD2BA009A109A209A3094D
:10078800A00A0319A10A0319A20A0319A30AA901B5
:10079800A90AA71FDE2BA409A509A609A709A40A67
:1007A8000319A50A0319A60A0319A70A0130FD00AF
:1007B8007D08A9060030AD000030AC000030AB0069
:1007C8000030AA0023082204210420040319332C32
:1007D800A801A80AA31BFE2B0130FD000310A00DE1
:1007E800A10DA20DA30DFD0BF22B0130FD007D081C
:1007F800A807EE2B0130FD000310AA0DAB0DAC0DC0
:10080800AD0DFD0B002C23082702031D152C220813
:100818002602031D152C21082502031D152C20086E
:100828002402031C262C2008A4022108031C210FE3
:10083800A5022208031C220FA6022308031C230F6B
:10084800A7022A1401300310A30CA20CA10CA00CBF
:10085800FF3E031D272C0130A802031DFE2B29088B
:100868000319412CAA09AB09AC09AD09AA0A031955
:10087800AB0A0319AC0A0319AD0A2D08A3002C080A
:10088800A2002B08A1002A08A00008008316031361
:10089800C11B0800C11B602C4108031D080040084B
:1008A800031D080001303F02031D5E2C00303E028C
:1008B800031D5E2C03180800410840043F043E0451
:1008C8000319C12C2030C2000030C3000030C4001E
:1008D8000030C5000030B0000030AF000030AE007E
:1008E800FF30AD004108A3004008A2003F08A10066
:1008F8003E08A0000030A7000030A6000030A50088
:10090800DF30A4000A128A119C250A128A11831664
:1009180003132308B4002208B3002108B2002008FA
:10092800B1000A128A112C230A128A1183160313A2
:100938002D08C2072E0803182E0FA32CA42CC307BA
:100948002F0803182F0FA92CAA2CC4073008031846
:10095800300AC5074508C1004408C0004308BF0065
:100968004208BE00C12C3E088312031395000800FC
:100978003E08831203139B0008003D08003A031940
:10098800C62CCE2C3C08013A0319B72C033A03199C
:10099800BC2CCE2C080083120313B31B0800B31B16
:1009A800E52C3308031D08003208031D0800013038
:1009B8003102031DE32C00303002031DE32C031821
:1009C800080033083204310430040319422D203062
:1009D800B4000030B5000030B6000030B700003079
:1009E800A3000030A2000030A100FF30A0003308AF
:1009F800F3003208F2003108F1003008F00000304E
:100A0800F7000030F6000030F500DF30F4000A127D
:100A18008A11DD250A128A11730883120313A700AD
:100A28007208A6007108A5007008A4000A128A11AD
:100A3800BB230A128A11831203132008B407210862
:100A48000318210F282D292DB50722080318220F76
:100A58002E2D2F2DB60723080318230AB7073708AA
:100A6800B3003608B2003508B1003408B000422D92
:100A780030089500080030089B0008002F08003A4D
:100A88000319472D4F2D2E08013A03193C2D033A1F
:100A980003193F2D4F2D0800003083120313BF00A8
:100AA8000030BE000030BD000030BC000030F30054
:100AB8000030F2000030F1000030F000FF30F700A5
:100AC800FF30F600FF30F5000130F4000030FB0085
:100AD8000030FA000030F900FF30F8000A128A11DD
:100AE8008B270A128A11013083120313AE000030DB
:100AF800AF000030B3000030B2000030B100003069
:100B0800B0000A128A11CF240A128A110230831205
:100B18000313AE000030AF000030B3000030B20065
:100B28000030B1000030B0000A128A11CF2408004A
:100B3800003083160313AC000030AB000030AA006D
:100B48000030A900201CBC2D2408A9072508031182
:100B58000318013E031DAA07260803110318013EC6
:100B6800031DAB07270803110318013E031DAC073B
:100B78000130A8000310A40DA50DA60DA70DA80B04
:100B8800BE2D01300310A30CA20CA10CA00CFF3E3B
:100B9800031DC62D2308220421042004031DA62DAD
:100BA8002C08A3002B08A2002A08A1002908A000ED
:100BB80008000030FC000030FB000030FA00003074
:100BC800F900701CFB2D7408F90775080311031848
:100BD800013E031DFA07760803110318013E031DA1
:100BE800FB07770803110318013E031DFC070130BA
:100BF800F8000310F40DF50DF60DF70DF80BFD2DAB
:100C080001300310F30CF20CF10CF00CFF3E031D45
:100C1800052E7308720471047004031DE52D7C0809
:100C2800F3007B08F2007A08F1007908F000080068
:100C380083160313A601A701200821040319552EC2
:100C4800A501A50AA11B342E01300310A00DA10D8A
:100C5800FF3E031D292E0130A4002408A507262ED7
:100C680001300310A60DA70DFF3E031D352E2108E8
:100C78002302031D412E20082202031C4A2E2008AD
:100C8800A2022108031CA303A302261401300310A7
:100C9800A10CA00CFF3E031D4B2E0130A502031D25
:100CA800342E2708A1002608A00008008316031385
:100CB800A3002308840083130008031908002308ED
:100CC800840000080A128A11C4260A128A1183169F
:100CD8000313230884000D3083130006031D7A2EA6
:100CE8000A300A128A11C4260A128A1183160313BB
:100CF800230884000A3083130006031D892E0D3053
:100D08000A128A11C4260A128A11013083160313A3
:100D1800A2002208A3075D2E8316031328082904BE
:100D28000319BF2EAD01AD0AA91BA62E0130031071
:100D3800A80DA90DFF3E031D9B2E0130AC002C0809
:100D4800AD07982E29082B02031DAC2E28082A026D
:100D5800031CB42E2808AA022908031CAB03AB0203
:100D680001300310A90CA80CFF3E031DB52E01305D
:100D7800AD02031DA62E2B08A9002A08A80008000A
:100D880083160313A100831203130C1AE52E981C73
:100D9800D52E83160313981298168312031318126C
:100DA8001816181DE32E1A0883160313A00020082E
:100DB80083120313EA00831603139812981664002B
:100DC800C72E8316031321088312031399003C309E
:100DD80083160313A000200883120313EB000000FE
:080DE8000000EB0BF32E0800E4
:100E000007308A000408840A820700340134003461
:100E10000A34003464340034E834033410342734A2
:100E2000463469346D34203464346F34203474347F
:100E30006534733474346534203400344B34703486
:100E40003A3420342534643420342D343E34203474
:100E5000003425346434203400348316031387149B
:100E60000715FF309200831203131708F0390C386E
:100E700097001D08F0390C389D009501CF3097057B
:100E80009B018C10FC30920512158C1C452F83168B
:100E90000313871007118316031708128316031311
:100EA000851205138312031385120513080083129C
:100EB0000313060883160313A00003300310A00CCD
:100EC000FF3E031D5E2F20080339A1002108831275
:100ED0000313E9000030E2000030E1000030E000E0
:100EE0000030DF0008004030831603139900181506
:100EF00018128312031398171816981283160313E7
:100F00000C128C1218138312031318138316031375
:100F10009812981608007B08803AFF007308803A00
:100F20007F02031D9D2F72087A02031D9D2F7108F9
:100F30007902031D9D2F700878020318080008002D
:100F4000003083120313E2000030E1000030E000C3
:100F50000030DF000030DE000030DD000030DC005B
:100F60000030DB00080083160313200883120313EC
:100F7000D70083160313210883120313D80000300F
:100F8000D81BFF30D900DA00080064008001840A11
:100F90000406031900340406C62F831203138C1EA3
:0A0FA000D32F1A080800FF300800E4
:04400E00F3ECFFFED2
:00000001FF
