:020000040000FA
:060000000A128A11122809
:10000800FE00030E83120313D9000408DA000A085D
:10001800DB007F08DC000A128A11972E0A128A1167
:10002800152883135E3084006F300A128A1519224E
:100038000A128A11D7308400ED300A128A15192263
:100048000A128A11831790308400C3300A128A1565
:1000580019220A128A111030840043300A128A15B4
:10006800192283010A128A115C2D831203132308B3
:100078008039A8002808AD002308A8002807A9008F
:100088002908B300A21B3314330803195828330A6C
:10009800031D56280030A3000030A2000030A10044
:1000A8000030A000A21760280030A3000030A20092
:1000B8000030A1000030A00027088039A8002808D7
:1000C800AD062708A8002807A9002908B200A61B22
:1000D8003214320803197D28320A031D7B280030A8
:1000E800A7000030A6000030A5000030A400A61725
:1000F80085280030A7000030A6000030A500003099
:10010800A4003208031D3308031D93280030A30000
:100118000030A2000030A1000030A0000800200834
:10012800A8002808F00026080A128A1592220A1246
:100138008A11710883120313B9007008B8003808CF
:10014800A800A901AA01AB012B08B1002A08B00038
:100158002908AF002808AE003908A800A901AA019B
:10016800AB012B08B7002A08B6002908B5002808F3
:10017800B4002108A8002808F00025080A128A15EA
:1001880092220A128A11710883120313B9007008A7
:10019800B8003808A800A901AA01AB012808AE07D1
:1001A800290803110318013E031DAF072A0803118C
:1001B8000318013E031DB0072B0803110318013E65
:1001C800031DB1073908A800A901AA01AB01280835
:1001D800B407290803110318013E031DB5072A08AF
:1001E80003110318013E031DB6072B08031103185A
:1001F800013E031DB7072208A8002808F0002408BC
:100208000A128A1592220A128A117108831203139C
:10021800B9007008B8003808A800A901AA01AB0104
:100228002808AE07290803110318013E031DAF076C
:100238002A0803110318013E031DB0072B080311F8
:100248000318013E031DB1073908A800A901AA0136
:10025800AB012808B407290803110318013E031D40
:10026800B5072A0803110318013E031DB6072B081A
:1002780003110318013E031DB7070830A800031037
:10028800AE0DAF0DB00DB10DA80B43292108A80084
:100298002808F00024080A128A1592220A128A11E4
:1002A800710883120313B9007008B8003808A80051
:1002B8003908A900AA01AB012808AE0729080311CB
:1002C8000318013E031DAF072A0803110318013E56
:1002D800031DB0072B0803110318013E031DB107C6
:1002E8002008A8002808F00025080A128A1592227A
:1002F8000A128A11710883120313B9007008B80032
:100308003808A8003908A900AA01AB012808AE07D7
:10031800290803110318013E031DAF072A0803111A
:100328000318013E031DB0072B0803110318013EF3
:10033800031DB1070830A8000310AE0DAF0DB00DB6
:10034800B10DA80BA0292008A8002808F00024084F
:100358000A128A1592220A128A117108831203134B
:10036800B9007008B8003808A8003908A900AA011F
:10037800AB012808AE07290803110318013E031D25
:10038800AF072A0803110318013E031DB0072B0805
:1003980003110318013E031DB1072108A80028080E
:1003A800F00026080A128A1592220A128A11710888
:1003B80083120313B9007008B8003808A800390878
:1003C800A900AA01AB012808B407290803110318DA
:1003D800013E031DB5072A0803110318013E031D3A
:1003E800B6072B0803110318013E031DB70722089F
:1003F800A8002808F00025080A128A1592220A1275
:100408008A11710883120313B9007008B8003808FC
:10041800A8003908A900AA01AB012808B4072908CF
:1004280003110318013E031DB5072A080311031819
:10043800013E031DB6072B0803110318013E031DD7
:10044800B7072208A8002808F00026080A128A150B
:1004580092220A128A11710883120313B9007008D4
:10046800B8003808A8003908A900AA01AB0108306B
:100478000310A80DA90DAA0DAB0DFF3E031D3C2AC4
:100488002808B407290803110318013E031DB507FE
:100498002A0803110318013E031DB6072B08031190
:1004A8000318013E031DB7072E08A8002F08A9004E
:1004B8003008AA003108AB0018300310AB0CAA0CA6
:1004C800A90CA80CFF3E031D612A2808B4072908B7
:1004D80003110318013E031DB5072A080311031869
:1004E800013E031DB6072B0803110318013E031D27
:1004F800B7070830A8000310AE0DAF0DB00DB10D51
:10050800A80B7F2A33083207A800A901A90D2808DB
:10051800823EB80029080318013EFF3EB900B61B09
:10052800B02A0130A8000310B40DB50DB60DB70DF3
:10053800A80B972AB11B34140130A8000310AE0D84
:10054800AF0DB00DB10DA80BA22AFF30B8070318E4
:10055800B90AFF30B907932AB201B11FC92AFF307F
:100568002E05A800FF302F05A900FF303005AA008E
:100578007F303105AB002B082A042904280403190D
:100588003418C72AC92AB201B20A32080319FB2A49
:100598000130B407003003180130B50700300318E4
:1005A8000130B607003003180130B707371CFB2AA3
:1005B8003408A8003508A9003608AA003708AB0097
:1005C8000130AC002B0DAB0CAA0CA90CA80CAC0B81
:1005D800E62A2B08B7002A08B6002908B50028081B
:1005E800B4000130B8070318B90A0030B907390850
:1005F800803AFF0080307F02031D042BFF30380251
:10060800031C112B7F3083120313B7008030B60010
:100618000030B5000030B400412B831203133908B1
:10062800803AFF0080307F02031D1C2B0130380206
:1006380003182A2B003083120313B7000030B600CA
:100648000030B5000030B400AD01412B8312031314
:100658003808A8002808B300FF30B405FF30B505F6
:100668007F30B6050030B7053318B6173308A80031
:100678000310280CA9002908B7002D08A80028088D
:10068800B7043708A3003608A2003508A1003408CB
:10069800A0000800831203136208831603135B0289
:1006A80083120313D3006308031C630A831603131E
:1006B8005C0283120313D4005308C5005408C60013
:1006C8000030C61BFF30C700C80083160313570845
:1006D80083120313C502831603135808031C580F0B
:1006E800762B792B83120313C6028316031359083A
:1006F800031C590F802B832B83120313C702831605
:1007080003135A08031C5A0F8A2B8D2B83120313C9
:10071800C8028316031383120313480883160313AE
:10072800E80083120313470883160313E7008312B4
:100738000313460883160313E600831203134508C0
:1007480083160313E50083120313D301D401831620
:100758000313690883120313C500831603136A0879
:1007680083120313C600831603136B088312031343
:10077800C700831603136C0883120313C8005308B9
:10078800C9005408CA000030CA1BFF30CB00CC0097
:100798004908C5074A0803184A0FD32BD42BC607A4
:1007A8004B0803184B0FD92BDA2BC7074C08031833
:1007B8004C0AC807480883160313EC008312031376
:1007C800470883160313EB008312031346088316A6
:1007D8000313EA0083120313450883160313E90081
:1007E800831203135308F0005408F1000030F11B82
:1007F800FF30F200F30001300A128A158B260A1224
:100808008A11730883120313A7007208A6007108DF
:10081800A5007008A4003F30A3008C30A200CC30A3
:10082800A100CD30A0000A128A1139200A128A11BB
:10083800831203132308BD002208BC002108BB0053
:100848002008BA000A128A15FA230A128A1183129A
:1008580003133B08CE003A08CD008316031368083B
:10086800F3006708F2006608F1006508F00001303F
:100878000A128A158B260A128A1173088312031327
:10088800A7007208A6007108A5007008A4004030EF
:10089800A3000030A2000030A1000030A0000A121E
:1008A8008A1139200A128A11831203132308BD0002
:1008B8002208BC002108BB002008BA000A128A15C9
:1008C800FA230A128A11831203133B08D0003A084C
:1008D800CF00831603136C08F3006B08F2006A0854
:1008E800F1006908F00001300A128A158B260A12F5
:1008F8008A11730883120313A7007208A6007108EF
:10090800A5007008A4003F30A3000030A20000300A
:10091800A1000030A0000A128A1139200A128A1197
:10092800831203132308BD002208BC002108BB0062
:100938002008BA000A128A15FA230A128A118312A9
:1009480003133B08D2003A08D1004F084D07C500F1
:1009580050080318500A4E07C60051084507D5002D
:1009680052080318520A4607D6005508F0005608E0
:10097800F1000030F11BFF30F200F300FF30F70008
:10098800FF30F600FF30F5000130F4000030FB00C6
:100998000030FA000030F900FF30F8000A128A151A
:1009A8002D220A128A11831203135608803AFF0077
:1009B80080307F02031DE22C01305502031C0A2DF2
:1009C800013083120313AE000030AF005508B000A9
:1009D8005608B1000030B11BFF30B200B3000A1254
:1009E8008A1567240A128A11023083120313AE0093
:1009F8000030AF000030B3000030B2000030B1006A
:100A08000030B0000A128A15672408008312031305
:100A1800D61F392D0130AE000030AF000030B300D2
:100A28000030B2000030B1000030B0000A128A1560
:100A380067240A128A11023083120313AE000030B1
:100A4800AF005509C5005609C600C50A0319C60AEC
:100A58004508B0004608B1000030B11BFF30B200B5
:100A6800B3000A128A15672408000130AE0000306E
:100A7800AF000030B3000030B2000030B1000030E9
:100A8800B0000A128A1567240A128A1102308312EA
:100A98000313AE000030AF000030B3000030B200E6
:100AA8000030B1000030B0000A128A15672408002F
:100AB800831603138112811107308104861283166D
:100AC80003178912831603138613861406158615D1
:100AD8000616831603170911891009108911831244
:100AE800031386168B16831603130C100B178B171C
:100AF800183096008B150A128A1542220A128A119A
:100B08000A128A155A220A128A110A128A15B5225D
:100B18000A128A110A128A1574220A128A110130DD
:100B280083160313BC000030BD000030C100003044
:100B3800C0000030BF000030BE000A128A15E82449
:100B48000A128A11023083160313BC000030BD005C
:100B58000030C1000030C0000030BF000030BE00CF
:100B68000A128A15E8240A128A110A128A15112211
:100B78000A128A1183160313C6004608D60061308C
:100B88005606031DB92D0A128A11EB270A128A117B
:100B9800003083120313E1000030E0000030DF0072
:100BA8000030DE00E801E901013083160313C600B6
:100BB800460883120313EA00643083160313A00067
:100BC8000030A1000A128A1521220A128A11831202
:100BD80003138612831203136908803AFF008030DA
:100BE8007F02031DF92D64306802031CEE2D831269
:100BF8000313EA018616E801E90119308316031385
:100C0800C6004608AE003F30B2000C30B100CC3010
:100C1800B000CD30AF00CC300A128A152E270A1248
:100C28008A11CC300A128A1547230A128A118312B4
:100C380003136908803AFF0080307F02031D262EC7
:100C4800333068020318772E243083160313C60046
:100C58004608AE00831203136808903E8400831789
:100C6800000883160313AF00B001AF1BB003CC30EC
:100C78000A128A152E270A128A11CC300A128A15EE
:100C880047230A128A11013083120313E807031855
:100C9800E90A0030E9071B2E243083160313C60027
:100CA8004608AE00831203136808DE3E84008317EB
:100CB800000883160313AF00B001AF1BB003CC309C
:100CC8000A128A152E270A128A11CC300A128A159E
:100CD80047230A128A11013083120313E807031805
:100CE800E90A0030E907831203136908803AFF0014
:100CF80080307F02031D822E64306802031C502E50
:100D08000B3083160313C6004608AE00CC300A1217
:100D18008A152E270A128A11CC300A128A154723FF
:100D28000A128A11B92D8B1A0B1DD92E0A128A1193
:100D38004E230A128A11831203136A080319D02E4C
:100D48006908803AFF0080307F02031DAD2E3230E3
:100D580068020318B72E831203135E086202D700D5
:100D68006808903EBE2E831203135E086202D70005
:100D78006808DE3E84005708831780006508E10094
:100D88006408E0006308DF006208DE000130E8075D
:100D98000318E90A0030E9070130E6070318E70AF3
:100DA8000030E7073C3081000B118B190B1C9F2F7B
:100DB8000608D7005708DD005D08D7000330031088
:100DC800D70CFF3E031DE32E57080339D8005808F7
:100DD800EB00712F6B03031DF32E0130152F02302A
:100DE8006B06031D7F2F0230D7005708EC00002F39
:100DF8006B08031D102FEC01013083160313DF0766
:100E0800003003180130E007003003180130E10713
:100E1800003003180130242F03306B06031D7F2F89
:100E28000330D7005708EC00FF3083160313DF07A1
:100E3800FF30031CE007FF30031CE107FF30031CF1
:100E4800E2077F2F6B08031D2B2FEC014B2F03307C
:100E58006B06031D7F2F0330D7005708EC000130C5
:100E680083160313DF07003003180130E007003052
:100E780003180130E107003003180130572F023002
:100E88006B06031D592F0230D7005708EC00FF30BE
:100E980083160313DF07FF30031CE007FF30031C32
:100EA800E107FF30031CE2077F2F6B03031D7F2F31
:100EB8000130D7005708EC00013083160313DF0711
:100EC800003003180130E007003003180130E10753
:100ED800003003180130E2077F2F6C08003A03192D
:100EE800EE2E013A0319FC2E033A0319262F013A74
:100EF8000319432F7F2F831603135F0983120313EC
:100F0800E20083160313600983120313E3008316B8
:100F18000313610983120313E400831603136209A0
:100F280083120313E500E20A0319E30A0319E40A2A
:100F38000319E50A0B105C08FF005B088A005A08D1
:100F48008400590E8300FE0E7E0E090000308316C1
:100F58000313AC000030AB000030AA000030A90039
:100F6800201CCA2F2408A907250803110318013ECD
:100F7800031DAA07260803110318013E031DAB072A
:100F8800270803110318013E031DAC070130A80010
:100F98000310A40DA50DA60DA70DA80BCC2F01308D
:100FA8000310A30CA20CA10CA00CFF3E031DD42F10
:100FB8002308220421042004031DB42F2C08A300B5
:100FC8002B08A2002A08A1002908A0000800003068
:100FD80083160313E2000030E1000030E000003027
:100FE800DF00003083120313E5000030E400003016
:100FF800E3000030E200080008308A000408840A90
:1010080082070034013400340A3400346434003474
:10101800E834033410342734463469346D342034CA
:1010280064346F3420347434653473347434653400
:10103800203400344B3470343A342034253464344A
:1010480020342D343E3420340034253464342034A4
:02105800003462
:10142200831203138C1E172A1A080800FF300800C3
:1014320064008001840A04060319003404061A2A8F
:10144200831603132008DB002108DC000030DC1BBC
:10145200FF30DD00DE0008007B08803AFF007308E1
:10146200803A7F02031D3F2A72087A02031D3F2A37
:1014720071087902031D3F2A7008780203180800D8
:1014820008004030831603139900181518128312AE
:101492000313981718169812831603130C128C1242
:1014A2001813831203131813831603139812981632
:1014B2000800831603170912831603130614071470
:1014C20087150716871283120313941214128316B8
:1014D200031314139413831203131408F0390438FA
:1014E200940094160800831203130608831603134C
:1014F200A00003300310A00CFF3E031D7B2A20082E
:101502000339A100210883120313EC000030831673
:101512000313E2000030E1000030E0000030DF00A1
:101522000800F800F401F5017008F200F3017208F6
:10153200F6007308F700781CA42A7608F40703184B
:10154200F50A7708F50701300310F60DF70DFF3E97
:10155200031DA52A0310F80C7808031D9C2A7508A0
:10156200F1007408F00008008316031387140715AE
:10157200FF309200831203131708F0390C389700DA
:101582001D08F0390C389D009501CF3097059B015D
:101592008C10FC30920512158C1CCD2A8316031375
:1015A2008710071183160317081283160313851277
:1015B2000513831203138512051308008316031300
:1015C200A100831203130C1A002B981CF02A831615
:1015D2000313981298168312031318121816181D63
:1015E200FE2A1A0883160313A0002008831203138D
:1015F200ED0083160313981298166400E22A8316EC
:10160200031321088312031399003C30831603133A
:10161200A000200883120313EE0000000000EE0B6E
:101622000E2B080083160313280829040319422BE2
:10163200AD01AD0AA91B292B01300310A80DA90D7C
:10164200FF3E031D1E2B0130AC002C08AD071B2BE7
:1016520029082B02031D2F2B28082A02031C372BD3
:101662002808AA022908031CAB03AB0201300310AD
:10167200A90CA80CFF3E031D382B0130AD02031D3F
:10168200292B2B08A9002A08A80008008316031397
:10169200A300230884008313000803190800230809
:1016A200840000080A128A15DF220A128A1583169C
:1016B2000313230884000D3083130006031D672BD8
:1016C2000A300A128A15DF220A128A1583160313B8
:1016D200230884000A3083130006031D762B0D3085
:1016E2000A128A15DF220A128A15013083160313A1
:1016F200A2002208A3074A2B83160313A501A60101
:10170200200821040319B62BA701A70AA11B952BB8
:1017120001300310A00DA10DFF3E031D8A2B0130E5
:10172200A4002408A707872B01300310A50DA60DDE
:10173200FF3E031D962B21082302031DA22B200826
:101742002202031CAB2B2008A2022108031CA303C4
:10175200A302251401300310A10CA00CFF3E031DAF
:10176200AC2B0130A702031D952B2608A1002508EA
:10177200A00008000030FC000030FB000030FA003E
:101782000030F900701CD92B7408F9077508031191
:101792000318013E031DFA07760803110318013EE0
:1017A200031DFB07770803110318013E031DFC0705
:1017B2000130F8000310F40DF50DF60DF70DF80BDE
:1017C200DB2B01300310F30CF20CF10CF00CFF3E9A
:1017D200031DE32B7308720471047004031DC32BF1
:1017E2007C08F3007B08F2007A08F1007908F00027
:1017F20008000310831203133C0D3D0DBE003E088A
:10180200C4004408031D0E2C0030BD000030BC0093
:101812000030BB000030BA0008003A08BE003B08A6
:10182200BF003C08C0003D08C1001F300310C10CBE
:10183200C00CBF0CBE0CFF3E031D172C3E08C2009D
:101842004208C300BC17FF30BA05FF30BB05FF30AA
:10185200BC050030BD059630C402C41F452C4408A7
:10186200803A973E031C052C01300310BD0CBC0CC2
:10187200BB0CBA0CFF3E031D362C0130BE003E08E5
:10188200C4070319582C352C203044020318052CA8
:1018920044080319582C0130BE000310BA0DBB0DC9
:1018A200BC0DBD0DBE0B4E2C0130C402492C4308A9
:1018B20003190800BA09BB09BC09BD09BA0A031910
:1018C200BB0A0319BC0A0319BD0A080083120313D9
:1018D200B31B0800B31B7D2C3308031D080032081C
:1018E200031D080001303102031D7B2C0030300241
:1018F200031D7B2C03180800330832043104300422
:101902000319DA2C2030B4000030B5000030B600E4
:101912000030B7000030A3000030A2000030A10068
:10192200FF30A0003308F3003208F2003108F10062
:101932003008F0000030F7000030F6000030F5000B
:10194200DF30F4000A128A15BB230A128A157308C3
:1019520083120313A7007208A6007108A50070087D
:10196200A4000A128A156D250A128A15831203131E
:101972002008B40721080318210FC02CC12CB50779
:1019820022080318220FC62CC72CB60723080318F7
:10199200230AB7073708B3003608B2003508B1008A
:1019A2003408B000DA2C30089500080030089B009B
:1019B20008002F08003A0319DF2CE72C2E08013A01
:1019C2000319D42C033A0319D72CE72C08008316E9
:1019D2000313C11B0800C11BFE2C4108031D080094
:1019E2004008031D080001303F02031DFC2C00309B
:1019F2003E02031DFC2C03180800410840043F046A
:101A02003E0403195F2D2030C2000030C3000030B5
:101A1200C4000030C5000030B0000030AF0000301C
:101A2200AE00FF30AD004108A3004008A2003F080D
:101A3200A1003E08A0000030A7000030A600003040
:101A4200A500DF30A4000A128A11AA270A128A15F9
:101A5200831603132308B4002208B3002108B2003E
:101A62002008B1000A128A15FC250A128A1583166B
:101A720003132D08C2072E0803182E0F412D422DE5
:101A8200C3072F0803182F0F472D482DC40730080E
:101A92000318300AC5074508C1004408C0004308BE
:101AA200BF004208BE005F2D3E088312031395005B
:101AB20008003E08831203139B0008003D08003A09
:101AC2000319642D6C2D3C08013A0319552D033A74
:101AD20003195A2D6C2D080083120313A901A31FA9
:101AE2007F2DA009A109A209A309A00A0319A10A2D
:101AF2000319A20A0319A30AA901A90AA71F902D73
:101B0200A409A509A609A709A40A0319A50A031984
:101B1200A60A0319A70A0130FD007D08A9060030B4
:101B2200AD000030AC000030AB000030AA0023084A
:101B32002204210420040319E52DA801A80AA31BED
:101B4200B02D0130FD000310A00DA10DA20DA30DBB
:101B5200FD0BA42D0130FD007D08A807A02D01304A
:101B6200FD000310AA0DAB0DAC0DAD0DFD0BB22D9A
:101B720023082702031DC72D22082602031DC72D95
:101B820021082502031DC72D20082402031CD82D7D
:101B92002008A4022108031C210FA5022208031C0D
:101BA200220FA6022308031C230FA7022A140130C6
:101BB2000310A30CA20CA10CA00CFF3E031DD92DF7
:101BC2000130A802031DB02D29080319F32DAA091B
:101BD200AB09AC09AD09AA0A0319AB0A0319AC0A8D
:101BE2000319AD0A2D08A3002C08A2002B08A1009E
:101BF2002A08A000080083160313B701B01F0E2E97
:101C0200AD09AE09AF09B009AD0A0319AE0A03194D
:101C1200AF0A0319B00AB701B70AB41F1F2EB109E0
:101C2200B209B309B409B10A0319B20A0319B30A12
:101C32000319B40A0130B5003508B7060030BB00FD
:101C42000030BA000030B9000030B80030082F046C
:101C52002E042D040319742EB601B60AB01B3F2EB2
:101C62000130B5000310AD0DAE0DAF0DB00DB50BCB
:101C7200332E0130B5003508B6072F2E0130B500DE
:101C82000310B80DB90DBA0DBB0DB50B412E3008BE
:101C92003402031D562E2F083302031D562E2E0822
:101CA2003202031D562E2D083102031C672E2D0809
:101CB200B1022E08031C2E0FB2022F08031C2F0F95
:101CC200B3023008031C300FB40238140130031081
:101CD200B00CAF0CAE0CAD0CFF3E031D682E0130F4
:101CE200B602031D3F2E37080319822EB809B9091F
:101CF200BA09BB09B80A0319B90A0319BA0A0319BE
:101D0200BB0A3B08B0003A08AF003908AE003808F9
:101D1200AD000800F8007808031DF31FA02E70091B
:101D2200FA007109FB007209FC007309FD00FA0A4E
:101D32000319FB0A0319FC0A0319FD0AA82E7308EA
:101D4200FD007208FC007108FB007008FA007308BD
:101D5200720471047004031DB72E0030F3000030CA
:101D6200F2000030F1000030F00008009630F4007C
:101D72007408F900FE307D050319E82E0130F400E5
:101D82007408F90701300310FD0CFC0CFB0CFA0C73
:101D9200FF3E031DC42EBB2E0130F4007408F90768
:101DA2000130FA07003003180130FB070030031836
:101DB2000130FC07003003180130FD070130031029
:101DC200FD0CFC0CFB0CFA0CFF3E031DE02EFF3059
:101DD2007D050319FC2ECD2E02307902031CFE2E46
:101DE2000130F9020130F4000310FA0DFB0DFC0D75
:101DF200FD0DF40BF52EFC1FED2E7918082FFF3088
:101E0200FA05FF30FB057F30FC05FF30FD050310AE
:101E1200F90C7908F400F501F601F7011830031006
:101E2200F40DF50DF60DF70DFF3E031D102F74088E
:101E3200FA047508FB047608FC047708FD047808A8
:101E4200031DF31F252FFD177D08F3007C08F20008
:101E52007B08F1007A08F000080083160313BB0028
:101E6200AF30B3003308B6000130AE07FF302E07A3
:101E720084000A128A1500200A128A15B300330858
:101E8200BC003C080319FB2F25303C060319552FD3
:101E92003C08B3003B088400330883138000013000
:101EA200B3003308BB07352FB7010130AE07FF304F
:101EB2002E0784000A128A1500200A128A15BC0015
:101EC200003A0319FB2F643A03196B2F0D3A0319D9
:101ED2006B2F352F3608840083130008B900840A5B
:101EE2000008BA000230B3003308B607BA1F822FC7
:101EF2000330B3003308B704B909BA09B90A0319A0
:101F0200BA0ABC01BC0A3C08B3003307013E840094
:101F12000A128A1500200A128A15B4000A128A15BA
:101F220000200A128A15B50035083A02031D9B2FBC
:101F320034083902031CA52F0130B3003308BC0753
:101F420005303C06031D842F370803390319B42FCB
:101F52002D30B3003B088400330883138000013026
:101F6200B3003308BB073C08B3003308B800FF30A6
:101F7200B3003308B807380A0319352F0A30A8000E
:101F82000030A9003808B3003307013E84000A126A
:101F92008A1500200A128A15A0000A128A1500204A
:101FA2000A128A15A1003A08A3003908A2000A12EF
:101FB2008A157D230A128A15831603132108AB00A2
:101FC2002008AA000A128A1513230A128A158316F8
:101FD20003132808303EB4003408BC003C08B300A8
:101FE2003B0884003308831380000130B3003308B8
:0E1FF200BB07B82F3B08840083138001080052
:04400E00F3ECFFFED2
:00000001FF
