:020000040000FA
:060000000A128A11122809
:10000800FE00030EF9000408FA000A08FB00831238
:1000180003137F08FC000A128A11612B0A128A1145
:100028001528F001F101F201F301F401F501F601DF
:1000380083135B3084006F300A128A1533270A1243
:100048008A11BA308400C9300A128A1533270A1275
:100058008A11831790308400EC300A128A153327EE
:1000680083010A128A113828831603138112811119
:100078000730810486128316031789128316031327
:100088008613861406158615061683160317091196
:100098008910091089118312031386168B1683168B
:1000A80003130C100B178B17183096008B150A12B8
:1000B8008A11E3270A128A110A128A15D6270A1208
:1000C8008A110A128A154E270A128A1101308312E0
:1000D8000313BC000030BD000030C1000030C00078
:1000E8000030BF000030BE000A128A11C6250A126D
:1000F8008A11023083120313BC000030BD000030A7
:10010800C1000030C0000030BF000030BE000A123D
:100118008A11C6250A128A11831603134408031983
:100128009D280A128A11E1210A128A1183160313E3
:10013800C4017308031930297108803AFF00803020
:100148007F02031DA9285B307002031C3029F301CC
:10015800831203138616F001F1012930DA005A08D8
:10016800AE000430AF000030B000A0300A128A118F
:1001780065240A128A11A0300A128A1179270A12F4
:100188008A117108803AFF0080307F02031DCE2853
:100198002E30700203181329343083120313DA0047
:1001A8005A08AE007008BE3E840083170008AF00EE
:1001B800B001AF1BB003A0300A128A1165240A12DD
:1001C8008A11A0300A128A1179270A128A1101307D
:1001D800F0070318F10A0030F107C52834308312FC
:1001E8000313DA005A08AE007008633E84008317D0
:1001F8000008AF00B001AF1BB003A0300A128A118B
:1002080065240A128A11A0300A128A1179270A1263
:100218008A110130F0070318F10A0030F10771085C
:10022800803AFF0080307F02031D1C295A3070027B
:10023800031CF2281B3083120313DA005A08AE009D
:10024800A0300A128A1165240A128A11A0300A12F3
:100258008A1179270A128A110A128A152B270A127B
:100268008A1183120313DA005A0883160313B9009C
:1002780075303906031D64290A128A153B270A12AC
:100288008A11003083160313BD000030BC00003013
:10029800BB000030BA00F001F101013083120313F2
:1002A800DA005A08F3006430A0000030A1000A12F6
:1002B8008A1589270A128A11831203138612902835
:1002C80077303906031D7829831203135B08643ECF
:1002D800A0005C080318013E003EA1000A128A151E
:1002E80089270A128A11902873303906031D8C2930
:1002F800831203135B089C3EA0005C080318013EB0
:10030800FF3EA1000A128A1589270A128A1190282D
:1003180020303906031D96290A128A11C6260A12A8
:100328008A11902865303906031DAA298312031300
:100338005B08323EA0005C080318013E003EA100A5
:100348000A128A1589270A128A11902864303906F8
:10035800031DBE29831203135B08CE3EA0005C0870
:100368000318013EFF3EA1000A128A1589270A12C6
:100378008A11902830303906031DCD2900308312A8
:100388000313A000A1000A128A1589270A128A11EC
:1003980090286B303906031DD829013083120313C6
:1003A800E9000030EA0090286C303906031D9028D7
:1003B80083120313E901EA019028831203135F08EB
:1003C8005B02D8006008031C600A5C02D900690857
:1003D8006A040319022A5908C7005808C6000310FE
:1003E800C60DC70D0310C60DC70D4608D400470833
:1003F800D5000030D51BFF30D600B62A6708580252
:10040800ED006808031C680A5902EE005908E80064
:100418005808E70058085904031D1C2A00308316A1
:100428000313C8000030C7000030C6000030642A3B
:1004380083160313450883120313C6008316031398
:10044800460883120313C700831603134708831251
:100458000313C80083160313480883120313C90043
:100468005808CA005908CB000030CB1BFF30CC001D
:10047800CD004A08C6074B0803184B0F442A452AE3
:10048800C7074C0803184C0F4A2A4B2AC8074D08BF
:1004980003184D0AC907490883160313C8008312B5
:1004A8000313480883160313C7008312031347086E
:1004B80083160313C6008312031346088316031317
:1004C800C500831203135908C7005808C600031053
:1004D800C60DC70D0310C60DC70D4608CE00470848
:1004E800CF006E08A1006D08A0000D30A2000030FA
:1004F800A3000A128A1566270A128A1183120313A7
:100508002108D1002008D00083160313460883125F
:100518000313A10083160313450883120313A000D5
:100528000030A200A3000A128A1566270A128A114F
:10053800831203132108D3002008D20050084E0765
:10054800C60051080318510A4F07C700520846074A
:10055800D40053080318530A4707D500D601D51B02
:10056800D6035608D7005708A3005608A200550816
:10057800A1005408A000FF30A700FF30A600FF30FC
:10058800A5000130A4000030AB000030AA00003004
:10059800A900FF30A8000A128A113D270A128A1101
:1005A800831203132308D7002208D6002108D50098
:1005B8002008D400D71B122B5708031DEF2A560812
:1005C800031DEF2A5508031DEF2A01305402031DAD
:1005D800ED2A031C122B0130BC000030BD00570867
:1005E800C1005608C0005508BF005408BE000A12D2
:1005F8008A11C6250A128A11023083120313BC001D
:100608000030BD000030C1000030C0000030BF0025
:100618000030BE000A128A11C6250800D71F3E2BDB
:100628000130BC000030BD000030C1000030C00007
:100638000030BF000030BE000A128A11C6250A1217
:100648008A11023083120313BC000030BD00540924
:10065800BE005509BF005609C0005709C100BE0AAF
:100668000319BF0A0319C00A0319C10A0A128A1119
:10067800C62508000130BC000030BD000030C100B4
:100688000030C0000030BF000030BE000A128A11DE
:10069800C6250A128A11023083120313BC000030E7
:1006A800BD000030C1000030C0000030BF00003085
:1006B800BE000A128A11C62508008B1A0B1DAE2B24
:1006C80083160313C401C40A73080319A92B7108FC
:1006D800803AFF0080307F02031D742B2D3070029A
:1006E8000318802B831603133A08831203135F023F
:1006F800F7007008BE3E892B831603133A0883124D
:1007080003135F02F7007008633E840077088317BD
:100718008000620883160313BD0083120313610867
:1007280083160313BC008312031360088316031394
:10073800BB00831203135F0883160313BA0001304A
:10074800F0070318F10A0030F1073C308312031355
:1007580081000B118B190B1C5A2C0608F70077081F
:10076800FD007D08F70003300310F70CFF3E031D62
:10077800B82B77080339F8007808F4003C2C740388
:10078800031DC82B0130E82B02307406031D4A2CC8
:100798000230F7007708F500D52B7408031DE32B0A
:1007A800F5010130E307003003180130E407003099
:1007B80003180130E507003003180130F52B03302A
:1007C8007406031D4A2C0330F7007708F500FF3044
:1007D800E307FF30031CE407FF30031CE507FF3085
:1007E800031CE6074A2C7408031DFC2BF5011A2C80
:1007F80003307406031D4A2C0330F7007708F50010
:100808000130E307003003180130E4070030031813
:100818000130E507003003180130242C023074063B
:10082800031D262C0230F7007708F500FF30E30798
:10083800FF30031CE407FF30031CE507FF30031CEF
:10084800E6074A2C7403031D4A2C0130F700770889
:10085800F5000130E307003003180130E4070030E9
:1008680003180130E507003003180130E6074A2C69
:100878007508003A0319C32B013A0319D12B033A1F
:100888000319F72B013A0319122C4A2C6309DF00CC
:100898006409E0006509E1006609E200DF0A03195E
:1008A800E00A0319E10A0319E20A0B107C08FF00A9
:1008B8007B088A007A088400790E8300FE0E7E0E7B
:1008C800090083120313BB002F30B3003308B600AE
:1008D8000130AE07FF302E0784000A128A11002764
:1008E8000A128A11B3003308BC003C080319322DE0
:1008F80025303C0603198C2C3C08B3003B088400C7
:100908003308831380000130B3003308BB076C2C15
:10091800B7010130AE07FF302E0784000A128A1192
:1009280000270A128A11BC00003A0319322D643AD2
:100938000319A22C0D3A0319A22C6C2C360884003A
:1009480083130008B900840A0008BA000230B30013
:100958003308B607BA1FB92C0330B3003308B704FD
:10096800B909BA09B90A0319BA0ABC01BC0A3C0890
:10097800B3003307013E84000A128A1100270A12C5
:100988008A11B4000A128A1100270A128A11B500C6
:1009980035083A02031DD22C34083902031CDC2C1A
:1009A8000130B3003308BC0705303C06031DBB2CDF
:1009B800370803390319EB2C2D30B3003B088400AA
:1009C8003308831380000130B3003308BB073C08A9
:1009D800B3003308B800FF30B3003308B807380A4B
:1009E80003196C2C0A30A8000030A9003808B3009D
:1009F8003307013E84000A128A1100270A128A115D
:100A0800A0000A128A1100270A128A11A1003A08C6
:100A1800A3003908A2000A128A1188260A128A112C
:100A2800831203132108AB002008AA000A128A11B6
:100A3800AF270A128A11831203132808303EB40024
:100A48003408BC003C08B3003B0884003308831317
:100A580080000130B3003308BB07EF2C3B0884004B
:100A680083138001080083120313B701B01F492DB7
:100A7800AD09AE09AF09B009AD0A0319AE0A0319E9
:100A8800AF0A0319B00AB701B70AB41F5A2DB10942
:100A9800B209B309B409B10A0319B20A0319B30AAE
:100AA8000319B40A0130B5003508B7060030BB0099
:100AB8000030BA000030B9000030B80030082F0408
:100AC8002E042D040319AF2DB601B60AB01B7A2DDA
:100AD8000130B5000310AD0DAE0DAF0DB00DB50B67
:100AE8006E2D0130B5003508B6076A2D0130B50006
:100AF8000310B80DB90DBA0DBB0DB50B7C2D300820
:100B08003402031D912D2F083302031D912D2E0849
:100B18003202031D912D2D083102031CA22D2D0830
:100B2800B1022E08031C2E0FB2022F08031C2F0F30
:100B3800B3023008031C300FB4023814013003101C
:100B4800B00CAF0CAE0CAD0CFF3E031DA32D013055
:100B5800B602031D7A2D37080319BD2DB809B90946
:100B6800BA09BB09B80A0319B90A0319BA0A031959
:100B7800BB0A3B08B0003A08AF003908AE00380895
:100B8800AD00080083120313C11B0800C11BDC2D34
:100B98004108031D08004008031D080001303F02FA
:100BA800031DDA2D00303E02031DDA2D031808005C
:100BB800410840043F043E040319392E2030C20086
:100BC8000030C3000030C4000030C5000030B00061
:100BD8000030AF000030AE00FF30AD004108A30088
:100BE8004008A2003F08A1003E08A0000030A7006E
:100BF8000030A6000030A500DF30A4000A128A11D8
:100C080047260A128A11831203132308B400220804
:100C1800B3002108B2002008B1000A128A11372552
:100C28000A128A11831203132D08C2072E0803180B
:100C38002E0F1F2E202EC3072F0803182F0F252E27
:100C4800262EC40730080318300AC5074508C10016
:100C58004408C0004308BF004208BE00392E3E08C1
:100C6800950008003E089B0008003D08003A03195B
:100C78003E2E462E3C08013A0319332E033A031937
:100C8800362E462E0800003083120313AC000030C5
:100C9800AB000030AA000030A900201C672E2408F1
:100CA800A907250803110318013E031DAA072608F2
:100CB80003110318013E031DAB072708031103188E
:100CC800013E031DAC070130A8000310A40DA50DBB
:100CD800A60DA70DA80B692E01300310A30CA20CBA
:100CE800A10CA00CFF3E031D712E23082204210431
:100CF8002004031D512E2C08A3002B08A2002A084B
:100D0800A1002908A000080083120313A501A60169
:100D1800200821040319C12EA701A70AA11BA02E90
:100D280001300310A00DA10DFF3E031D952E0130CB
:100D3800A4002408A707922E01300310A50DA60DC4
:100D4800FF3E031DA12E21082302031DAD2E2008FE
:100D58002202031CB62E2008A2022108031CA303AA
:100D6800A302251401300310A10CA00CFF3E031DA3
:100D7800B72E0130A702031DA02E2608A1002508C2
:100D8800A0000800013083120313BC000030BD002E
:100D98000030C1000030C0000030BF000030BE008D
:100DA8000A128A11C6250A128A1102308312031305
:100DB800BC000030BD000030C1000030C000003071
:100DC800BF000030BE000A128A11C6250A128A1115
:100DD8000A128A153B270A128A110030831203135C
:0C0DE800A000A1000A128A15892708004B
:100E000007308A000408840A820700340134003461
:100E10000A34003464340034E834033410342734A2
:100E200053346534743450346F3469346E347434EC
:100E30003A3420342534643420340D340A340034F8
:100E4000463469346D34203464346F34203474345F
:100E50006534733474346534203400344B34703466
:100E60003A3420342534643420342D343E34203454
:100E700000342534643420340034831203132B08E7
:100E8000803AFF002308803A7F02031D512F220879
:100E90002A02031D512F21082902031D512F20086A
:100EA000280203185C2F2B08A3002A08A200290897
:100EB000A1002808A00008002308803AFF002708A6
:100EC000803A7F02031D6E2F26082202031D6E2F1B
:100ED00025082102031D6E2F240820020318080094
:100EE0002708A3002608A2002508A1002408A000C6
:100EF000080083120313A30023088400831300084F
:100F0000031908002308840000080A128A15AE2776
:100F10000A128A1183120313230884000D308313ED
:100F20000006031D992F0A300A128A15AE270A12ED
:100F30008A1183120313230884000A3083130006E6
:100F4000031DA82F0D300A128A15AE270A128A1126
:100F5000013083120313A2002208A3077C2F8312FF
:100F60000313280829040319DE2FAD01AD0AA91BBC
:100F7000C52F01300310A80DA90DFF3E031DBA2F88
:100F80000130AC002C08AD07B72F29082B02031D38
:100F9000CB2F28082A02031CD32F2808AA022908CD
:100FA000031CAB03AB0201300310A90CA80CFF3EDD
:100FB000031DD42F0130AD02031DC52F2B08A9003E
:100FC0002A08A8000800403083160313990018155A
:100FD0001812831203139817181698128316031306
:100FE0000C128C1218138312031318138316031395
:060FF0009812981608009B
:101E5600831203138C1E312F1A080800FF30080066
:101E660064008001840A0406031900340406342F32
:101E7600003083120313E6000030E5000030E40072
:101E86000030E3000030E2000030E1000030E00006
:101E96000030DF000800831203130608A000033099
:101EA6000310A00CFF3E031D532F20080339A10089
:101EB6002108F5000030E6000030E5000030E400BF
:101EC6000030E300080083120313A401A501201CBF
:101ED600722F2208A4070318A50A2308A5070130B4
:101EE6000310A20DA30DFF3E031D732F0130031037
:101EF600A10CA00CFF3E031D7A2F20082104031D10
:101F06006A2F2508A1002408A000080083120313E5
:101F16002008A2002108A3000030A31BFF30A40064
:101F2600A5005E082506031DA22F5D082406031DD5
:101F3600A22F5C082306031DA22F5B0822060319A5
:101F460008002008DB002108DC000030DC1BFF3025
:101F5600DD00DE00080083120313A10083120313C1
:101F66000C1ACB2F981CBF2F8316031398129816A2
:101F76008312031318121816181DC92F1A08A00069
:101F86002008EC0083160313981298166400B12FEC
:101F9600210899003C30A0002008F600000000004F
:101FA600F60BD12F08008316031387140715FF308D
:101FB6009200831203131708F0390C3897001D0896
:101FC600F0390C389D009501CF3097059B018C1098
:101FD600FC30920512158C1CEE2F83160313871006
:101FE60007118316031708128316031385120513A8
:0A1FF600831203138512051308007F
:04400E00F3ECFFFED2
:00000001FF
