:020000040000FA
:060000000A128A110E280D
:10000800FE00030EF2000408F3000A08F4000A12C6
:100018008A110F290A128A111128F601F701F8012D
:10002800F901FA0183135230840065300A128A11EB
:100038004B2583010A128A11D0298312031356080B
:100048005202CC005708031C570A5302CD0060081F
:100058004C02E3006108031C610A4D02E4004D08EC
:10006800E1004C08E0004D08C7004C08C60003102A
:10007800C60DC70D0310C60DC70D4608C8004708B2
:10008800C9006408A7006308A6000D30A800003066
:10009800A9000A128A11B6240A128A1183120313BC
:1000A8002708CB002608CA004A084807CE004B0894
:1000B80003184B0A4907CF00D001CF1BD0035008C3
:1000C800D1005108A3005008A2004F08A1004E0813
:1000D800A000FF30A700FF30A600FF30A5000130C8
:1000E800A4000030AB000030AA000030A900FF30A7
:1000F800A8000A128A11CB230A128A118312031349
:100108002308D1002208D0002108CF002008CE0003
:10011800D11BC0285108031D9D285008031D9D2888
:100128004F08031D9D2801304E02031D9B28031C08
:10013800C0280130BC000030BD005108C100500883
:10014800C0004F08BF004E08BE000A128A110923DA
:100158000A128A11023083120313BC000030BD005A
:100168000030C1000030C0000030BF000030BE00C9
:100178000A128A1109230800D11FEC280130BC009B
:100188000030BD000030C1000030C0000030BF00AA
:100198000030BE000A128A1109230A128A1102309D
:1001A80083120313BC000030BD004E09BE004F0986
:1001B800BF005009C0005109C100BE0A0319BF0A97
:1001C8000319C00A0319C10A0A128A11092308006F
:1001D8000130BC000030BD000030C1000030C0005C
:1001E8000030BF000030BE000A128A1109230A122B
:1001F8008A11023083120313BC000030BD000030A6
:10020800C1000030C0000030BF000030BE000A123C
:100218008A11092308008B1A0B1D1929831203134D
:10022800E201E20A3C3081000B118B190B1CC72933
:10023800831203130608F0007008F5007508F00033
:1002480003300310F00CFF3E031D25297008033905
:10025800F1007108F700A9297703031D352901303A
:10026800552902307706031DB7290230F0007008BF
:10027800F80042297708031D5029F8010130DA07F0
:10028800003003180130DB07003003180130DC07A9
:10029800003003180130622903307706031DB7299F
:1002A8000330F0007008F800FF30DA07FF30031C55
:1002B800DB07FF30031CDC07FF30031CDD07B72911
:1002C8007708031D6929F801872903307706031D7C
:1002D800B7290330F0007008F8000130DA07003061
:1002E80003180130DB07003003180130DC07003049
:1002F80003180130912902307706031D9329023033
:10030800F0007008F800FF30DA07FF30031CDB0745
:10031800FF30031CDC07FF30031CDD07B729770318
:10032800031DB7290130F0007008F8000130DA0722
:10033800003003180130DB07003003180130DC07F8
:10034800003003180130DD07B7297808003A03198F
:100358003029013A03193E29033A03196429013A5D
:1003680003197F29B7295A09D6005B09D7005C0908
:10037800D8005D09D900D60A0319D70A0319D80A83
:100388000319D90A0B1074088A0073088400720EC6
:100398008300FE0E7E0E090083160313811281115D
:1003A80007308104861283160317891283160313F4
:1003B8008613861406158615061683160317091163
:1003C8008910091089118312031386168B16831658
:1003D80003130C100B178B17183096008B150A1285
:1003E8008A11F9240A128A110A128A1167240A1238
:1003F8008A110A128A1111250A128A1101308312F0
:100408000313BC000030BD000030C1000030C00044
:100418000030BF000030BE000A128A1109230A12F8
:100428008A11023083120313BC000030BD00003073
:10043800C1000030C0000030BF000030BE000A120A
:100448008A1109230A128A110A128A113C250A12F2
:100458008A1183120313201C352A8312031386166C
:10046800382A8312031386120A128A113C250A12AB
:100478008A118312031320082104031D492A0A1232
:100488008A1107240A128A116C2A0A128A113B243B
:100498000A128A11831203132108A7002008A60054
:1004A800FB30A800FF30A9000A128A11B6240A12EC
:1004B8008A118312031352082607AC005308031845
:1004C800530A2707AD000A128A1191240A128A11C9
:1004D8008312031362080319282A0A128A11212099
:1004E8000A128A1183120313E201282A83120313C2
:1004F800B701B01F8C2AAD09AE09AF09B009AD0A22
:100508000319AE0A0319AF0A0319B00AB701B70AEB
:10051800B41F9D2AB109B209B309B409B10A031974
:10052800B20A0319B30A0319B40A0130B500350831
:10053800B7060030BB000030BA000030B900003008
:10054800B80030082F042E042D040319F22AB6012E
:10055800B60AB01BBD2A0130B5000310AD0DAE0DB3
:10056800AF0DB00DB50BB12A0130B5003508B6078F
:10057800AD2A0130B5000310B80DB90DBA0DBB0D89
:10058800B50BBF2A30083402031DD42A2F083302C2
:10059800031DD42A2E083202031DD42A2D08310245
:1005A800031CE52A2D08B1022E08031C2E0FB202E7
:1005B8002F08031C2F0FB3023008031C300FB4029E
:1005C800381401300310B00CAF0CAE0CAD0CFF3E6C
:1005D800031DE62A0130B602031DBD2A3708031998
:1005E800002BB809B909BA09BB09B80A0319B90A2D
:1005F8000319BA0A0319BB0A3B08B0003A08AF004E
:100608003908AE003808AD00080083120313C11B77
:100618000800C11B1F2B4108031D08004008031DCB
:10062800080001303F02031D1D2B00303E02031D50
:100638001D2B03180800410840043F043E04031919
:100648007C2B2030C2000030C3000030C4000030D2
:10065800C5000030B0000030AF000030AE00FF3001
:10066800AD004108A3004008A2003F08A1003E08D1
:10067800A0000030A7000030A6000030A500DF3041
:10068800A4000A128A118A230A128A1183120313F8
:100698002308B4002208B3002108B2002008B100E2
:1006A8000A128A117A220A128A11831203132D0858
:1006B800C2072E0803182E0F622B632BC3072F08BF
:1006C80003182F0F682B692BC40730080318300A4A
:1006D800C5074508C1004408C0004308BF004208D8
:1006E800BE007C2B3E08950008003E089B000800D1
:1006F8003D08003A0319812B892B3C08013A03195C
:10070800762B033A0319792B892B080000308312C2
:100718000313AC000030AB000030AA000030A90081
:10072800201CAA2B2408A907250803110318013E39
:10073800031DAA07260803110318013E031DAB0772
:10074800270803110318013E031DAC070130A80058
:100758000310A40DA50DA60DA70DA80BAC2B0130F9
:100768000310A30CA20CA10CA00CFF3E031DB42B7C
:100778002308220421042004031D942B2C08A30021
:100788002B08A2002A08A1002908A000080083124B
:1007980003132B08803AFF002308803A7F02031DC9
:1007A800DF2B22082A02031DDF2B21082902031D43
:1007B800DF2B200828020318EA2B2B08A3002A089D
:1007C800A2002908A1002808A00008002308803AF0
:1007D800FF002708803A7F02031DFC2B260822020F
:1007E800031DFC2B25082102031DFC2B24082002D5
:1007F800031808002708A3002608A2002508A1005E
:100808002408A0000800013083120313BC00003044
:10081800BD000030C1000030C0000030BF00003013
:10082800BE000A128A1109230A128A1102308312A1
:100838000313BC000030BD000030C1000030C00010
:100848000030BF000030BE000A128A1109230A12C4
:100858008A110A128A1129250A128A110030831274
:100868000313AC00AD000A128A119124080000306D
:1008780083120313071A013076060319642C7608CD
:10088800031D482C0130492C0030A2002208F60034
:100898000310871A0314003003180130A200A301C3
:1008A8000310A20DA30D2208FF3EA400230803187D
:1008B800013EFF3EA5002408A0002508A10008006D
:1008C800A001A10108008316031387140715FF3040
:1008D8009200831203131708F0390C3897001D088B
:1008E800F0390C389D009501CF3097059B018C108D
:1008F800FC30920512158C1C7F2C8316031387106D
:10090800071183160317081283160313851205139C
:1009180083120313851205130800831203132C088E
:10092800AE002D08AF000030AF1BFF30B000B100A3
:1009380055083106031DAA2C54083006031DAA2C9D
:1009480053082F06031DAA2C52082E060319080067
:100958002C08D2002D08D3000030D31BFF30D40060
:10096800D500080083120313AA01AB01261CC22C70
:100978002808AA070318AB0A2908AB070130031097
:10098800A80DA90DFF3E031DC32C01300310A70CB1
:10099800A60CFF3E031DCA2C26082704031DBA2CEB
:1009A8002B08A7002A08A600080004308A000408BB
:1009B800840A82070034013400340A340034643471
:1009C8000034E83403341034273453346534743431
:1009D80050346F3469346E3474343A3420342534E6
:1009E800643420340D340A34003440308316031341
:1009F80099001815181283120313981718169812CD
:100A0800831603130C128C12181383120313181372
:100A18008316031398129816080083120313060806
:100A2800A00003300310A00CFF3E031D162D200864
:100A38000339A1002108F8000030DD000030DC0097
:100A48000030DB000030DA000800003083120313A6
:100A5800DD000030DC000030DB000030DA00003060
:100A6800D9000030D8000030D7000030D600080088
:100A7800031083120313871903140030031801307D
:100A8800A200A3012208A0002308A1000800640016
:0E0A98008001840A04060319003404064C2D64
:04400E00F3ECFFFED2
:00000001FF
