:020000040000FA
:060000000A128A110E280D
:10000800FE00030EF2000408F3000A08F4000A12C6
:100018008A1114290A128A111128F601F701F80128
:10002800F901FA0183135030840063300A128A11EF
:10003800502583010A128A11D52983120313540803
:100048005002CA005508031C550A5102CB005E082D
:100058004A02E1005F08031C5F0A4B02E2004B08FA
:10006800DF004A08DE004B08A7004A08A600033054
:10007800A8000030A9000A128A11BB240A128A11AA
:10008800831203132708C7002608C6006208A700C2
:100098006108A6000B30A8000030A9000A128A11D6
:1000A800BB240A128A11831203132708C9002608E1
:1000B800C80048084607CC0049080318490A4707FA
:1000C800CD00CE01CD1BCE034E08CF004F08A300B4
:1000D8004E08A2004D08A1004C08A000FF30A70060
:1000E800FF30A600FF30A5000130A4000030AB00AF
:1000F8000030AA000030A900FF30A8000A128A11B7
:10010800D0230A128A11831203132308CF0022086E
:10011800CE002108CD002008CC00CF1BC5284F08F1
:10012800031DA2284E08031DA2284D08031DA2285E
:1001380001304C02031DA028031CC5280130BC0057
:100148000030BD004F08C1004E08C0004D08BF0078
:100158004C08BE000A128A110E230A128A110230B4
:1001680083120313BC000030BD000030C100003012
:10017800C0000030BF000030BE000A128A110E23F2
:100188000800CF1FF1280130BC000030BD0000304E
:10019800C1000030C0000030BF000030BE000A12AD
:1001A8008A110E230A128A11023083120313BC002B
:1001B8000030BD004C09BE004D09BF004E09C0000B
:1001C8004F09C100BE0A0319BF0A0319C00A03195F
:1001D800C10A0A128A110E2308000130BC0000303F
:1001E800BD000030C1000030C0000030BF0000304A
:1001F800BE000A128A110E230A128A1102308312D3
:100208000313BC000030BD000030C1000030C00046
:100218000030BF000030BE000A128A110E23080009
:100228008B1A0B1D1E2983120313E001E00A3C30D0
:1002380081000B118B190B1CCC29831203130608A0
:10024800F0007008F5007508F00003300310F00C9A
:10025800FF3E031D2A2970080339F1007108F700D1
:10026800AE297703031D3A2901305A29023077064F
:10027800031DBC290230F0007008F80047297708F0
:10028800031D5529F8010130D80700300318013043
:10029800D907003003180130DA070030031801309D
:1002A800672903307706031DBC290330F000700866
:1002B800F800FF30D807FF30031CD907FF30031CB4
:1002C800DA07FF30031CDB07BC297708031D6E29FA
:1002D800F8018C2903307706031DBC290330F00090
:1002E8007008F8000130D807003003180130D9072A
:1002F800003003180130DA0700300318013096295E
:1003080002307706031D98290230F0007008F800C3
:10031800FF30D807FF30031CD907FF30031CDA076A
:10032800FF30031CDB07BC297703031DBC29013000
:10033800F0007008F8000130D807003003180130C9
:10034800D907003003180130DA07003003180130EC
:10035800DB07BC297808003A03193529013A031943
:100368004329033A03196929013A03198429BC2945
:100378005809D4005909D5005A09D6005B09D70095
:10038800D40A0319D50A0319D60A0319D70A0B1078
:1003980074088A0073088400720E8300FE0E7E0EB5
:1003A8000900831603138112811107308104861214
:1003B80083160317891283160313861386140615EA
:1003C8008615061683160317091189100910891155
:1003D8008312031386168B16831603130C100B1740
:1003E8008B17183096008B150A128A11FE240A12F0
:1003F8008A110A128A116C240A128A110A128A11A5
:1004080016250A128A11013083120313BC0000302A
:10041800BD000030C1000030C0000030BF00003017
:10042800BE000A128A110E230A128A1102308312A0
:100438000313BC000030BD000030C1000030C00014
:100448000030BF000030BE000A128A110E230A12C3
:100458008A110A128A1141250A128A11831203137A
:10046800201C3A2A8312031386163D2A831203138B
:1004780086120A128A1141250A128A11831203135D
:1004880020082104031D4E2A0A128A110C240A127C
:100498008A11712A0A128A1140240A128A118312B7
:1004A80003132108A7002008A6000530A800003083
:1004B800A9000A128A11BB240A128A118312031393
:1004C80050082607AC0051080318510A2707AD0049
:1004D8000A128A1196240A128A11831203136008D9
:1004E80003192D2A0A128A1121200A128A1183124D
:1004F8000313E0012D2A83120313B701B01F912AB9
:10050800AD09AE09AF09B009AD0A0319AE0A03195E
:10051800AF0A0319B00AB701B70AB41FA22AB10972
:10052800B209B309B409B10A0319B20A0319B30A23
:100538000319B40A0130B5003508B7060030BB000E
:100548000030BA000030B9000030B80030082F047D
:100558002E042D040319F72AB601B60AB01BC22AC5
:100568000130B5000310AD0DAE0DAF0DB00DB50BDC
:10057800B62A0130B5003508B607B22A0130B500F1
:100588000310B80DB90DBA0DBB0DB50BC42A300850
:100598003402031DD92A2F083302031DD92A2E0835
:1005A8003202031DD92A2D083102031CEA2A2D081C
:1005B800B1022E08031C2E0FB2022F08031C2F0FA6
:1005C800B3023008031C300FB40238140130031092
:1005D800B00CAF0CAE0CAD0CFF3E031DEB2A013086
:1005E800B602031DC22A37080319052BB809B90931
:1005F800BA09BB09B80A0319B90A0319BA0A0319CF
:10060800BB0A3B08B0003A08AF003908AE0038080A
:10061800AD00080083120313C11B0800C11B242B63
:100628004108031D08004008031D080001303F026F
:10063800031D222B00303E02031D222B0318080045
:10064800410840043F043E040319812B2030C200B6
:100658000030C3000030C4000030C5000030B000D6
:100668000030AF000030AE00FF30AD004108A300FD
:100678004008A2003F08A1003E08A0000030A700E3
:100688000030A6000030A500DF30A4000A128A114D
:100698008F230A128A11831203132308B400220835
:1006A800B3002108B2002008B1000A128A117F2283
:1006B8000A128A11831203132D08C2072E08031881
:1006C8002E0F672B682BC3072F0803182F0F6D2BCE
:1006D8006E2BC40730080318300AC5074508C10047
:1006E8004408C0004308BF004208BE00812B3E08F2
:1006F800950008003E089B0008003D08003A0319D1
:10070800862B8E2B3C08013A03197B2B033A0319DD
:100718007E2B8E2B0800003083120313AC000030B0
:10072800AB000030AA000030A900201CAF2B240821
:10073800A907250803110318013E031DAA07260867
:1007480003110318013E031DAB0727080311031803
:10075800013E031DAC070130A8000310A40DA50D30
:10076800A60DA70DA80BB12B01300310A30CA20CEA
:10077800A10CA00CFF3E031DB92B23082204210461
:100788002004031D992B2C08A3002B08A2002A087B
:10079800A1002908A0000800831203132B08803A3F
:1007A800FF002308803A7F02031DE42B22082A0257
:1007B800031DE42B21082902031DE42B200828022D
:1007C8000318EF2B2B08A3002A08A2002908A10070
:1007D8002808A00008002308803AFF002708803A6C
:1007E8007F02031D012C26082202031D012C250867
:1007F8002102031D012C24082002031808002708E1
:10080800A3002608A2002508A1002408A0000800CB
:10081800013083120313BC000030BD000030C1005A
:100828000030C0000030BF000030BE000A128A113C
:100838000E230A128A11023083120313BC000030FF
:10084800BD000030C1000030C0000030BF000030E3
:10085800BE000A128A110E230A128A110A128A117C
:100868002E250A128A11003083120313AC00AD0042
:100878000A128A1196240800003083120313071AFB
:10088800013076060319692C7608031D4D2C0130BA
:100898004E2C0030A2002208F6000310871A031419
:1008A800003003180130A200A3010310A20DA30D0C
:1008B8002208FF3EA40023080318013EFF3EA500BE
:1008C8002408A0002508A1000800A001A101080033
:1008D8008316031387140715FF309200831203133E
:1008E8001708F0390C3897001D08F0390C389D00AE
:1008F8009501CF3097059B018C10FC30920512159D
:100908008C1C842C83160313871007118316031776
:100918000812831603138512051383120313851215
:1009280005130800831203132C08AE002D08AF002E
:100938000030AF1BFF30B000B10053083106031D73
:10094800AF2C52083006031DAF2C51082F06031D8B
:10095800AF2C50082E06031908002C08D0002D08CB
:10096800D1000030D11BFF30D200D3000800831221
:100978000313AA01AB01261CC72C2808AA070318D1
:10098800AB0A2908AB0701300310A80DA90DFF3EDB
:10099800031DC82C01300310A70CA60CFF3E031D35
:1009A800CF2C26082704031DBF2C2B08A7002A08D4
:1009B800A600080004308A000408840A820700346C
:1009C800013400340A34003464340034E834033425
:1009D8001034273453346534743450346F346934E4
:1009E8006E3474343A3420342534643420340D346D
:1009F8000A3400344030831603139900181518126E
:100A080083120313981718169812831603130C12DF
:100A18008C121813831203131813831603139812D6
:100A280098160800831203130608A0000330031069
:100A3800A00CFF3E031D1B2D20080339A10021082F
:100A4800F8000030DB000030DA000030D900003058
:100A5800D8000800003083120313DB000030DA00EE
:100A68000030D9000030D8000030D7000030D60060
:100A78000030D5000030D40008000310831203139F
:100A880087190314003003180130A200A3012208BB
:100A9800A0002308A100080064008001840A04065D
:080AA800031900340406512D6E
:04400E00F3ECFFFED2
:00000001FF
