:020000040000FA
:060000000A128A11122809
:10000800FE00030E83120313CE000408CF000A0873
:10001800D0007F08D1000A128A11B0290A128A1169
:10002800152883135330840070300A128A158326EA
:100038000A128A11E2308400ED300A128A158326EA
:100048000A128A11831790308400EC300A128A153C
:10005800832683010A128A117F2B831203135B08FC
:100068005702CA005C08031C5C0A5802CB006508EA
:100078006604031957280530F0000030F1004B08DA
:10008800F3004A08F2000A128A114E260A128A114F
:10009800700883120313C6007108C7000030C71B1D
:1000A800FF30C800052963084A02EE006408031CF3
:1000B800640A4B02EF004B08E4004A08E3004A08D0
:1000C8004B04031D7128003083160313EC00003025
:1000D800EB000030EA000030B928831603136908E2
:1000E80083120313B800831603136A0883120313D9
:1000F800B900831603136B0883120313BA0083161F
:1001080003136C0883120313BB004A08BC004B0896
:10011800BD000030BD1BFF30BE00BF003C08B80763
:100128003D0803183D0F99289A28B9073E08031877
:100138003E0F9F28A028BA073F0803183F0ABB07AD
:100148003B0883160313EC00831203133A08831643
:100158000313EB0083120313390883160313EA0011
:1001680083120313380883160313E9008312031359
:100178004B08B9004A08B8000310B80DB90D0310B0
:10018800B80DB90D3808C0003908C1006F08F10072
:100198006E08F0000D30F2000030F3000A128A11E8
:1001A800D9270A128A11710883120313C300700831
:1001B800C200831603136A08F1006908F0000030D2
:1001C800F200F3000A128A11D9270A128A1171085B
:1001D80083120313C5007008C40042084007B80022
:1001E80043080318430A4107B90044083807C60002
:1001F80045080318450A3907C700C801C71BC803C3
:100208004808C9004908F3004808F2004708F10007
:100218004608F000FF30F700FF30F600FF30F50029
:100228000130F4000030FB000030FA000030F90023
:10023800FF30F8000A128A119F270A128A117308E0
:1002480083120313C9007208C8007108C700700838
:10025800C600C91B61294908031D3E294808031D1A
:100268003E294708031D3E2901304602031D3C294B
:10027800031C61290130AE000030AF004908B3000B
:100288004808B2004708B1004608B0000A128A11AF
:10029800CD250A128A11023083120313AE000030F2
:1002A800AF000030B3000030B2000030B1000030C1
:1002B800B0000A128A11CD250800C91F8D29013006
:1002C800AE000030AF000030B3000030B2000030A4
:1002D800B1000030B0000A128A11CD250A128A1125
:1002E800023083120313AE000030AF004609B0009D
:1002F8004709B1004809B2004909B300B00A031917
:10030800B10A0319B20A0319B30A0A128A11CD25D0
:1003180008000130AE000030AF000030B3000030FC
:10032800B2000030B1000030B0000A128A11CD25A9
:100338000A128A11023083120313AE000030AF0094
:100348000030B3000030B2000030B1000030B0001F
:100358000A128A11CD2508008B1A0B1DF6290A12DC
:100368008A1131200A128A118312031369080319AA
:10037800E9296808803AFF0080307F02031DC629FA
:100388002D3067020318D0298312031353085B0228
:10039800CC006708BE3ED7298312031353085B02BB
:1003A800CC006708633E84004C08831780005E0811
:1003B800D6005D08D5005C08D4005B08D300013086
:1003C800E7070318E80A0030E8070130831603132B
:1003D800E6070318E70A0030E7073C3083120313E7
:1003E80081000B118B190B1CA22A0608CC004C08A3
:1003F800D2005208CC0003300310CC0CFF3E031D82
:10040800002A4C080339CD004D08EA00842A6A0303
:10041800031D102A0130302A02306A06031D922A71
:100428000230CC004C08EB001D2A6A08031D2B2A59
:10043800EB010130DF07003003180130E00700301E
:1004480003180130E1070030031801303D2A03305A
:100458006A06031D922A0330CC004C08EB00FF30DB
:10046800DF07FF30031CE007FF30031CE107FF3004
:10047800031CE207922A6A08031D442AEB01622A38
:1004880003306A06031D922A0330CC004C08EB00A7
:100498000130DF07003003180130E007003003188F
:1004A8000130E1070030031801306C2A02306A0677
:1004B800031D6E2A0230CC004C08EB00FF30DF072A
:1004C800FF30031CE007FF30031CE107FF30031C6B
:1004D800E207922A6A03031D922A0130CC004C08D5
:1004E800EB000130DF07003003180130E00700306F
:1004F80003180130E107003003180130E207922A9F
:100508006B08003A03190B2A013A0319192A033A0E
:1005180003193F2A013A03195A2A922A5F09DB0074
:100528006009DC006109DD006209DE00DB0A0319ED
:10053800DC0A0319DD0A0319DE0A0B105108FF0053
:1005480050088A004F0884004E0E8300FE0E7E0E6F
:10055800090083160313B900AF30B1003108B400A5
:100568000130AE07FF302E0784000A128A11652772
:100578000A128A11B1003108BA003A0803197A2B15
:1005880025303A060319D42A3A08B10039088400FC
:100598003108831380000130B1003108B907B42A4B
:1005A800B5010130AE07FF302E0784000A128A1108
:1005B80065270A128A11BA00003A03197A2B643A9D
:1005C8000319EA2A0D3A0319EA2AB42A34088400DE
:1005D80083130008B700840A0008B8000230B1008D
:1005E8003108B407B81F012B0330B1003108B50436
:1005F800B709B809B70A0319B80ABA01BA0A3A0812
:10060800B1003107013E84000A128A1165270A12D7
:100618008A11B2000A128A1165270A128A11B300D8
:1006280033083802031D1A2B32083702031C242B07
:100638000130B1003108BA0705303A06031D032B13
:10064800350803390319332B2D30B10039088400DC
:100658003108831380000130B1003108B9073A0826
:10066800B1003108B600FF30B1003108B607360ACC
:100678000319B42A0A30A8000030A9003608B100CE
:100688003107013E84000A128A1165270A128A116D
:10069800A0000A128A1165270A128A11A1003808D7
:1006A800A3003708A2000A128A1127270A128A1102
:1006B800831603132108AB002008AA000A128A1522
:1006C80096270A128A11831603132808303EB200AF
:1006D8003208BA003A08B100390884003108831397
:1006E80080000130B1003108B907372B3908840080
:1006F80083138001080083160313811281110730C8
:10070800810486128316031789128316031386132E
:1007180086140615861506168316031709118910FF
:10072800091089118312031386168B168316031377
:100738000C100B178B17183096008B150A128A1598
:10074800D0260A128A1183160313A001A101A2015F
:1007580024300A128A15BC260A128A110A128A152E
:1007680004270A128A110A128A15E8260A128A111F
:10077800013083160313BC000030BD000030C100F7
:100788000030C0000030BF000030BE000A128A11DD
:1007980048250A128A11023083160313BC00003060
:1007A800BD000030C1000030C0000030BF00003084
:1007B800BE000A128A1148250A128A110A128A15DD
:1007C8008B260A128A1183160313200821040319A1
:1007D8000A2C20308312031386060A128A156C2607
:1007E8000A128A1183160313C6000310460CC700A9
:1007F8004708E800F0300A128A157B260A128A1187
:10080800013083160313E4000030E5006408650432
:100818000319E22B1930C6004608AE006808C70065
:10082800C8014708AF004808B000CD300A128A1145
:10083800AD220A128A11CD300A128A15CA270A1265
:100848008A1183160313E401E501E22B83160313CF
:10085800B701B01F3C2CAD09AE09AF09B009AD0A0C
:100868000319AE0A0319AF0A0319B00AB701B70A88
:10087800B41F4D2CB109B209B309B409B10A03195F
:10088800B20A0319B30A0319B40A0130B5003508CE
:10089800B7060030BB000030BA000030B9000030A5
:1008A800B80030082F042E042D040319A22CB60119
:1008B800B60AB01B6D2C0130B5000310AD0DAE0D9E
:1008C800AF0DB00DB50B612C0130B5003508B6077A
:1008D8005D2C0130B5000310B80DB90DBA0DBB0D74
:1008E800B50B6F2C30083402031D842C2F083302FB
:1008F800031D842C2E083202031D842C2D0831027E
:10090800031C952C2D08B1022E08031C2E0FB202D1
:100918002F08031C2F0FB3023008031C300FB4023A
:10092800381401300310B00CAF0CAE0CAD0CFF3E08
:10093800031D962C0130B602031D6D2C37080319D0
:10094800B02CB809B909BA09BB09B80A0319B90A18
:100958000319BA0A0319BB0A3B08B0003A08AF00EA
:100968003908AE003808AD00080083120313A90146
:10097800A31FCB2CA009A109A209A309A00A031946
:10098800A10A0319A20A0319A30AA901A90AA71F00
:10099800DC2CA409A509A609A709A40A0319A50A14
:1009A8000319A60A0319A70A0130FD007D08A90644
:1009B8000030AD000030AC000030AB000030AA00C1
:1009C80023082204210420040319312DA801A80AB0
:1009D800A31BFC2C0130FD000310A00DA10DA20DDE
:1009E800A30DFD0BF02C0130FD007D08A807EC2CB1
:1009F8000130FD000310AA0DAB0DAC0DAD0DFD0BC4
:100A0800FE2C23082702031D132D22082602031D8E
:100A1800132D21082502031D132D20082402031C71
:100A2800242D2008A4022108031C210FA502220856
:100A3800031C220FA6022308031C230FA7022A1453
:100A480001300310A30CA20CA10CA00CFF3E031D47
:100A5800252D0130A802031DFC2C290803193F2D60
:100A6800AA09AB09AC09AD09AA0A0319AB0A03190B
:100A7800AC0A0319AD0A2D08A3002C08A2002B0804
:100A8800A1002A08A000080083160313C11B080050
:100A9800C11B5E2D4108031D08004008031D080006
:100AA80001303F02031D5C2D00303E02031D5C2D0A
:100AB80003180800410840043F043E040319BF2DF1
:100AC8002030C2000030C3000030C4000030C50030
:100AD8000030B0000030AF000030AE00FF30AD0095
:100AE8004108A3004008A2003F08A1003E08A0005A
:100AF8000030A7000030A6000030A500DF30A400B9
:100B08000A128A11A7260A128A11831603132308C8
:100B1800B4002208B3002108B2002008B1000A126C
:100B28008A112A240A128A11831603132D08C20770
:100B38002E0803182E0FA12DA22DC3072F08031866
:100B48002F0FA72DA82DC40730080318300AC50792
:100B58004508C1004408C0004308BF004208BE0061
:100B6800BF2D3E0883120313950008003E08831228
:100B780003139B0008003D08003A0319C42DCC2D2F
:100B88003C08013A0319B52D033A0319BA2DCC2DA7
:100B9800080083120313B31B0800B31BE32D3308AB
:100BA800031D08003208031D080001303102031D2F
:100BB800E12D00303002031DE12D03180800330831
:100BC8003204310430040319402E2030B4000030C0
:100BD800B5000030B6000030B7000030A300003088
:100BE800A2000030A100FF30A0003308F300320853
:100BF800F2003108F1003008F0000030F700003052
:100C0800F6000030F500DF30F4000A128A11E826F9
:100C18000A128A11730883120313A7007208A60028
:100C28007108A5007008A4000A128A11B9240A12D2
:100C38008A11831203132008B40721080318210F0F
:100C4800262E272EB50722080318220F2C2E2D2E0C
:100C5800B60723080318230AB7073708B30036086E
:100C6800B2003508B1003408B000402E30089500B5
:100C7800080030089B0008002F08003A0319452E89
:100C88004D2E2E08013A03193A2E033A03193D2E28
:100C98004D2E0800F601F11F582EF009F109F00A4F
:100CA8000319F10AF601F60AF31F632EF209F30994
:100CB800F20A0319F30A0130F4007408F606F70182
:100CC800F8017008710403199A2EF501F50AF11B51
:100CD800792E01300310F00DF10DFF3E031D6E2E2D
:100CE8000130F4007408F5076B2E01300310F70D7E
:100CF800F80DFF3E031D7A2E71087302031D862E20
:100D080070087202031C8F2E7008F2027108031C0F
:100D1800F303F302771401300310F10CF00CFF3EDB
:100D2800031D902E0130F502031D792E7608031954
:100D3800A22EF709F809F70A0319F80A7808F1004A
:100D48007708F0000800003083160313AC00003069
:100D5800AB000030AA000030A900201CC72E2408D0
:100D6800A907250803110318013E031DAA07260831
:100D780003110318013E031DAB07270803110318CD
:100D8800013E031DAC070130A8000310A40DA50DFA
:100D9800A60DA70DA80BC92E01300310A30CA20C99
:100DA800A10CA00CFF3E031DD12E23082204210410
:100DB8002004031DB12E2C08A3002B08A2002A082A
:100DC800A1002908A00008000030FC000030FB004A
:100DD8000030FA000030F900701C062F7408F9077B
:100DE800750803110318013E031DFA07760803115D
:100DF8000318013E031DFB07770803110318013E82
:100E0800031DFC070130F8000310F40DF50DF60D75
:100E1800F70DF80B082F01300310F30CF20CF10C4E
:100E2800F00CFF3E031D102F730872047104700448
:100E3800031DF02E7C08F3007B08F2007A08F1000D
:100E48007908F000080083160313A501A6012008FD
:100E580021040319602FA701A70AA11B3F2F013006
:100E68000310A00DA10DFF3E031D342F0130A40077
:100E78002408A707312F01300310A50DA60DFF3E4A
:100E8800031D402F21082302031D4C2F2008220296
:100E9800031C552F2008A2022108031CA303A30248
:100EA800251401300310A10CA00CFF3E031D562F82
:100EB8000130A702031D3F2F2608A1002508A00026
:100EC800080007308A000408840A820700340134C5
:100ED80000340A34003464340034E8340334103401
:100EE8002734463469346D34203464346F34203404
:100EF80074346534733474346534203400345334B2
:100F080050344934523478343A34203425346434F3
:100F180020340D340A3400344B3470343A342034DD
:100F28002534643420342D343E34203400342534C0
:100F38006434203400347B08803AFF007308803A18
:100F48007F02031DB12F72087A02031DB12F7108A9
:100F58007902031DB12F700878020318BC2F7B0893
:100F6800F3007A08F2007908F1007808F000080028
:100F78007308803AFF007708803A7F02031DCE2F5E
:100F880076087202031DCE2F75087102031DCE2F3D
:100F980074087002031808007708F3007608F20056
:100FA8007508F1007408F0000800F401F501701CE0
:100FB800E32F7208F4070318F50A7308F5070130E0
:100FC8000310F20DF30DFF3E031DE42F0130031053
:100FD800F10CF00CFF3E031DEB2F70087104031D8C
:100FE800DB2F7508F1007408F0000800831603135E
:060FF80014180800FA2F96
:101CD8000A128A11FA2783120313130808008312C1
:101CE80003138C1E792E1A080800FF30080083168B
:101CF8000313A00020088312031393000800640054
:101D08008001840A0406031900340406842E83160D
:101D18000313141C942E0130A0000030A100080009
:101D2800A001A101080083160313200883120313DE
:101D3800D70083160313210883120313D800003039
:101D4800D81BFF30D900DA000800003083120313D3
:101D5800E2000030E1000030E0000030DF00003039
:101D6800DE000030DD000030DC000030DB00080061
:101D780083160313A3008712231DC62E220894007E
:101D88008715CA2E200822049400871123082104ED
:101D9800831203139400080040308316031399003C
:101DA8001815181283120313981718169812831609
:101DB80003130C128C1218138312031318138316AF
:101DC8000313981298160800831203130608831643
:101DD8000313A00003300310A00CFF3E031DEF2ED9
:101DE80020080339A100210883120313EB000030F7
:101DF800E2000030E1000030E0000030DF000800C1
:101E08008316031387140715FF30920083120313F8
:101E18001708F0390C3897001D08F0390C389D0068
:101E28009501CF3097059B018C10FC309205121557
:101E38008C1C1C2F83160313871007118316031796
:101E480008128316031385120513831203138512D0
:101E580005130800013083160313BC000030BD00D1
:101E68000030C1000030C0000030BF000030BE00AC
:101E78000A128A1148250A128A150230831603139A
:101E8800BC000030BD000030C1000030C000003090
:101E9800BF000030BE000A128A1148250A128A15AE
:101EA8000A128A15A9260A128A1500308316031306
:101EB800A000A1000A128A159726080083160313AA
:101EC800A100831203130C1A832F981C732F8316F7
:101ED8000313981298168312031318121816181D54
:101EE800812F1A0883160313A000200883120313F6
:101EF800EC0083160313981298166400652F831656
:101F0800031321088312031399003C30831603132B
:101F1800A000200883120313ED0000000000ED0B61
:101F2800912F080083160313280829040319C52FC5
:101F3800AD01AD0AA91BAC2F01300310A80DA90DE6
:101F4800FF3E031DA12F0130AC002C08AD079E2FCA
:101F580029082B02031DB22F28082A02031CBA2FB6
:101F68002808AA022908031CAB03AB02013003109E
:101F7800A90CA80CFF3E031DBB2F0130AD02031DA9
:101F8800AC2F2B08A9002A08A80008008316031301
:101F9800A3002308840083130008031908002308FA
:101FA800840000080A128A1562270A128A15831605
:101FB8000313230884000D3083130006031DEA2F42
:101FC8000A300A128A1562270A128A158316031321
:101FD800230884000A3083130006031DF92F0D30EF
:101FE8000A128A1562270A128A150130831603130A
:081FF800A2002208A307CD2F6F
:04400E00F3ECFFFED2
:00000001FF
