:020000040000FA
:060000000A128A110E280D
:10000800FE00030EF5000408F6000A08F7000A12BD
:100018008A11A02F0A128A1111280A128A11FE27A2
:100028000A128A11EE000A128A11FF270A128A118F
:10003800EF00831790308400DE300A168A1161259C
:100048000A128A118313A0308400DB300A168A1141
:100058006125E901EA01EB01EC01ED01F801F90183
:10006800FA01FB01FC01FD0183010A168A11722DB8
:10007800FF0000308A007F08820741280A128A158B
:100088006D2C0A128A11FA2F0A168A11B72D8312BB
:1000980003132C088039B1003108B6002C08B100D0
:1000A8003107B2003208BC00AB1B3C143C080319F2
:1000B8006A283C0A031D68280030AC000030AB00F9
:1000C8000030AA000030A900AB1772280030AC003D
:1000D8000030AB000030AA000030A9003008803999
:1000E800B1003108B6063008B1003107B200320855
:1000F800BB00AF1B3B143B0803198F283B0A031DA9
:100108008D280030B0000030AF000030AE00003065
:10011800AD00AF1797280030B0000030AF000030B6
:10012800AE000030AD003B08031D3C08031DA528A8
:100138000030AC000030AB000030AA000030A9004D
:1001480008002908B1003108A0002F080A168A11F2
:100158003B270A128A11831203132108C2002008C0
:10016800C1004108B100B201B301B4013408BA00BA
:100178003308B9003208B8003108B7004208B100A6
:10018800B201B301B4013408C0003308BF0032081B
:10019800BE003108BD002A08B1003108A0002E08B1
:1001A8000A168A113B270A128A118312031321089F
:1001B800C2002008C1004108B100B201B301B40176
:1001C8003108B707320803110318013E031DB807A9
:1001D800330803110318013E031DB907340803113E
:1001E8000318013E031DBA074208B100B201B3016A
:1001F800B4013108BD07320803110318013E031D7D
:10020800BE07330803110318013E031DBF07340856
:1002180003110318013E031DC0072B08B100310864
:10022800A0002D080A168A113B270A128A11831288
:1002380003132108C2002008C1004108B100B2011F
:10024800B301B4013108B707320803110318013E9E
:10025800031DB807330803110318013E031DB9072E
:10026800340803110318013E031DBA074208B10000
:10027800B201B301B4013108BD07320803110318F4
:10028800013E031DBE07330803110318013E031D79
:10029800BF07340803110318013E031DC0070830C7
:1002A800B1000310B70DB80DB90DBA0DB10B552932
:1002B8002A08B1003108A0002D080A168A113B2728
:1002C8000A128A11831203132108C2002008C100F0
:1002D8004108B1004208B200B301B4013108B707C0
:1002E800320803110318013E031DB8073308031130
:1002F8000318013E031DB907340803110318013E12
:10030800031DBA072908B1003108A0002E080A16F3
:100318008A113B270A128A11831203132108C2008B
:100328002008C1004108B1004208B200B301B4017D
:100338003108B707320803110318013E031DB80737
:10034800330803110318013E031DB90734080311CC
:100358000318013E031DBA070830B1000310B70D9A
:10036800B80DB90DBA0DB10BB2292908B100310881
:10037800A0002D080A168A113B270A128A11831237
:1003880003132108C2002008C1004108B100420837
:10039800B200B301B4013108B707320803110318DA
:1003A800013E031DB807330803110318013E031D5E
:1003B800B907340803110318013E031DBA072A08B8
:1003C800B1003108A0002F080A168A113B270A122B
:1003D8008A11831203132108C2002008C1004108B2
:1003E800B1004208B200B301B4013108BD073208B8
:1003F80003110318013E031DBE0733080311031838
:10040800013E031DBF07340803110318013E031DF5
:10041800C0072B08B1003108A0002E080A168A115F
:100428003B270A128A11831203132108C2002008ED
:10043800C1004108B1004208B200B301B40131085B
:10044800BD07320803110318013E031DBE07330818
:1004580003110318013E031DBF07340803110318D5
:10046800013E031DC0072B08B1003108A0002F086A
:100478000A168A113B270A128A11831203132108CC
:10048800C2002008C1004108B1004208B200B3010F
:10049800B40108300310B10DB20DB30DB40DFF3E19
:1004A800031D4E2A3108BD07320803110318013E07
:1004B800031DBE07330803110318013E031DBF07C0
:1004C800340803110318013E031DC0073708B100A3
:1004D8003808B2003908B3003A08B40018300310DD
:1004E800B40CB30CB20CB10CFF3E031D732A3108D7
:1004F800BD07320803110318013E031DBE07330868
:1005080003110318013E031DBF0734080311031824
:10051800013E031DC0070830B1000310B70DB80D28
:10052800B90DBA0DB10B912A3C083B07B100B201D5
:10053800B20D3108823EC10032080318013EFF3E69
:10054800C200BF1BC22A0130B1000310BD0DBE0D91
:10055800BF0DC00DB10BA92ABA1B3D140130B10063
:100568000310B70DB80DB90DBA0DB10BB42AFF3091
:10057800C1070318C20AFF30C207A52ABB01BA1F68
:10058800DB2AFF303705B100FF303805B200FF30F5
:100598003905B3007F303A05B40034083304320417
:1005A800310403193D18D92ADB2ABB01BB0A3B08D1
:1005B80003190D2B0130BD07003003180130BE07A9
:1005C800003003180130BF07003003180130C0079E
:1005D800401C0D2B3D08B1003E08B2003F08B30097
:1005E8004008B4000130B500340DB40CB30CB20CA3
:1005F800B10CB50BF82A3408C0003308BF00320824
:10060800BE003108BD000130C1070318C20A00301E
:10061800C2074208803AFF0080307F02031D162B74
:10062800FF304102031C232B7F3083120313C000C9
:100638008030BF000030BE000030BD00532B831255
:1006480003134208803AFF0080307F02031D2E2BDF
:100658000130410203183C2B003083120313C00001
:100668000030BF000030BE000030BD00B601532B83
:10067800831203134108B1003108BC00FF30BD05E7
:10068800FF30BE057F30BF050030C0053C18BF17DE
:100698003C08B1000310310CB2003208C000360823
:1006A800B1003108C0044008AC003F08AB003E0868
:1006B800AA003D08A90008008312031346088039E0
:1006C800CB004B08D3004608CB004B07CC004C08A6
:1006D800D500C51B551455080319802B550A031D51
:1006E8007D2B0030C6000030C5000030C40000304B
:1006F800C300C517C601882B0030C6000030C500EE
:100708000030C4000030C3004A088039CB004B08D1
:10071800D40054085306031D53174A08CB004B074F
:10072800CC004C08D400C91B541454080319AA2B34
:10073800540A031DA72B0030CA000030C90000303E
:10074800C8000030C700C917CA01B22B0030CA0060
:100758000030C9000030C8000030C70055085402F6
:100768000318F82B531FBC2B8030CB004B08D30643
:100778005508CB004B08D6005408CB004B08D500D1
:100788005608CB004B08D4004308CB004B08D600D2
:100798004708CB004B08C3005608CB004B08C700DE
:1007A8004408CB004B08D6004808CB004B08C400CF
:1007B8005608CB004B08C8004508CB004B08D600AC
:1007C8004908CB004B08C5005608CB004B08C900A8
:1007D8004608CB004B08D6004A08CB004B08C60099
:1007E8005608CB004B08CA00D6015408CB00CC01F0
:1007F8004C08CE0055084B02CD00031CCE034E0812
:10080800803AFF0080307F02031D0C2C1A304D0205
:10081800031C452C8312031346084504440443046F
:100828000319182C0130192C0030CB004B08D600C6
:100838000030C6000030C5000030C4000030C300DE
:100848005408CB004B08D5004B2C561C342C5608AA
:10085800CB0003104B0C0138CC004C08D600362CCA
:100868000310D60C4318D6170130CB00460DC60C22
:10087800C50CC40CC30CCB0B3A2C0130CB004B0875
:10088800D5078312031354085502031C292C531B44
:100898008C2C5508031D592C0030C6000030C500AB
:1008A8000030C4000030C30008004708C3074808E8
:1008B80003110318013E031DC40749080311031857
:1008C800013E031DC5074A0803110318013E031D15
:1008D800C607461C2E2D561C7A2C5608CB00031032
:1008E8004B0C0138CC004C08D6007C2C0310D60CDD
:1008F8004318D6170130CB00460DC60CC50CC40CE6
:10090800C30CCB0B802C0130CB004B08D5072E2D08
:100918004608803AFF004A08803A7F02031D9E2C51
:1009280049084502031D9E2C48084402031D9E2CBD
:10093800470843020318F62CFF30CB00FF30CC00E9
:10094800FF30CD00FF30CE004708CF004808D00068
:100958004908D1004A08D2004308CF024408031CC2
:10096800440FB72CB82CD0024508031C450FBD2CEA
:10097800BE2CD1024608031C460FC32CC42CD2023D
:100988004F08CB0750080318500FCB2CCC2CCC07A2
:1009980051080318510FD12CD22CCD075208031837
:1009A800520ACE074E08C6004D08C5004C08C400C0
:1009B8004B08C3008030CB004B08D306D609D60AB3
:1009C8005608031D042D0130C307003003180130F9
:1009D800C407003003180130C50700300318013080
:1009E800C607042D4708C3024808031C480FC40261
:1009F8004908031C490FC5024A08031C4A0FC602CE
:100A08004608450444044304031D2C2D5608031DC1
:100A18002C2D0030C6000030C5000030C400003066
:100A2800C30008000130CB000310C30DC40DC50D71
:100A3800C60DCB0B182DD61B4314561C252D03149D
:100A4800262D0310D60D550803192C2D0130D5027B
:100A5800C51F162DD401D61F392D56087F39031905
:100A68004318372D392DD401D40A540803196C2D95
:100A78000130C307003003180130C40700300318E1
:100A88000130C507003003180130C607461C6C2D1D
:100A98004308CB004408CC004508CD004608CE00EA
:100AA8000130CF004E0DCE0CCD0CCC0CCB0CCF0BA7
:100AB800562D4E08C6004D08C5004C08C4004B080A
:100AC800C300550A03196C2D0130CB004B08D5071C
:100AD800550A031D5508031D7C2D0030C600003043
:100AE800C5000030C4000030C30055080319D30105
:100AF800551C802DC517842D7F30CB004B08C505AC
:100B08005508CB0003104B0CCC004C08C600D31F73
:100B18000800C617080083160313EC000030EB002A
:100B28000030EA000030E9000030E8003F30E7001C
:100B38008030E6000030E5000030E4003F30DE00A1
:100B48008030DD000030DC000030DB00DF01ED012B
:100B58006C0884002D3083170006031DBD2DBF309F
:100B6800DE008030DD000030DC000030DB00ED010D
:100B7800ED0A07306D020318622F6D086C078312A7
:100B88000313DB005B088400831700080319622F36
:100B9800831603136D086C0783120313DB005B08CD
:100BA8008400303000020318F32D831603136D08F8
:100BB8006C0783120313DB005B0884003A300002E1
:100BC800031CF32D831603136D086C07831203139C
:100BD800DB005B0884002E300006031D622F83169D
:100BE80003136D086C0783120313DB005B08840092
:100BF8002E300006031D0D2E3D3083160313E7002B
:100C0800CC30E600CC30E500CD30E400DF01DF0A6F
:100C1800592F831603136D086C0783120313DB0027
:100C28005B08840000080F39DC00DD01DE01DF010C
:100C38005F08A5005E08A4005D08A3005C08A20088
:100C480001300A128A1510230A128A11831203131B
:100C5800250883160313E30083120313240883165D
:100C68000313E20083120313230883160313E1001E
:100C780083120313220883160313E0005F0303198A
:100C8800A82E630883120313C60083160313620891
:100C980083120313C5008316031361088312031319
:100CA800C40083160313600883120313C300413082
:100CB800AC002030AB000030AA000030A900831639
:100CC80003136B0883120313B000831603136A0817
:100CD80083120313AF0083160313690883120313E7
:100CE800AE0083160313680883120313AD000A12BB
:100CF8008A114B200A128A11831203132C08CA0086
:100D08002B08C9002A08C8002908C7000A128A1136
:100D180060230A128A1183120313460883160313E9
:100D2800EB0083120313450883160313EA008312AA
:100D38000313440883160313E900831203134308BB
:100D480083160313E800592F6B0883120313C60098
:100D5800831603136A0883120313C500831603134B
:100D6800690883120313C4008316031368088312E7
:100D78000313C30083160313670883120313AC001D
:100D880083160313660883120313AB008316031339
:100D9800650883120313AA008316031364088312D9
:100DA8000313A90083160313630883120313B00007
:100DB80083160313620883120313AF008316031309
:100DC800610883120313AE008316031360088312AD
:100DD8000313AD000A128A114B200A128A118312DA
:100DE80003132C08CA002B08C9002A08C8002908C0
:100DF800C7000A128A1160230A128A118312031388
:100E0800460883160313EB00831203134508831661
:100E18000313EA0083120313440883160313E9003B
:100E280083120313430883160313E8003D3083122B
:100E38000313AC00CC30AB00CC30AA00CD30A900F5
:100E480083160313670883120313B0008316031372
:100E5800660883120313AF00831603136508831211
:100E68000313AE0083160313640883120313AD0043
:100E78000A128A114B200A128A11831203132C08B2
:100E880083160313E700831203132B088316031337
:100E9800E600831203132A0883160313E50083125E
:100EA8000313290883160313E40001308312031384
:100EB800DB005B0883160313ED07BD2D83160313B0
:100EC8005E0883120313AC00831603135D088312B4
:100ED8000313AB00831603135C0883120313AA00E1
:100EE800831603135B0883120313A90083160313E5
:100EF8006B0883120313B000831603136A08831266
:100F08000313AF0083160313690883120313AE009B
:100F180083160313680883120313AD000A128A119B
:100F28004B20831203132C08DA002B08D9002A0857
:100F3800D8002908D70008008B1A0B1DF12FFC01D7
:100F4800FB0183120313071EAD2F0130F000700858
:100F5800FB00871DB32F0230F0007008FC007B08EF
:100F68007C07F0007008FD006D08F00002300310E7
:100F7800F00DFF3E031DBB2FA0307007F1007D0868
:100F88007107F2007208840083130008F300F4016B
:100F9800F31BF403730883160313D4070318D50A45
:100FA8007408D5077D08F000700883120313ED005C
:100FB8000130F0007008FA070F307A02031CED2F99
:100FC800013083160313D2070318D30A0030D3075E
:100FD800FA01CB30831281000B1177088A0076085A
:100FE8008400750E8300FE0E7E0E09000A128A1513
:100FF80043250800FF34FF3408308A000408840AB7
:10100800820700340034003480343F340034003424
:101018002034413400340034C834423400340034BD
:101028007A344434003440341C3446340034503468
:10103800C334473400342434743449348034963407
:1010480018344B342034BC34BE344C3428346B341C
:101058006E344E34F934023415345034EC34783468
:10106800AD346034CA34F234493471340034003455
:1010780080343F34CD34CC34CC343D340A34D73486
:1010880023343C346F34123483343A341734B7344D
:10109800D1343834AC34C53427343734BD343734DC
:1010A800863435349534BF34D63433347734CC343D
:1010B8002B3432345F34703489343034FF34E634BE
:1010C800DB342E340834E5343C341E346034423486
:1010D800A2340D3401340034003400340A340034AE
:1010E800003400346434003400340034E834033409
:1010F800003400341034273400340034A0348634EB
:1011080001340034403442340F340034803496348F
:10111800983400340034E134F53405340034CA34EA
:101128009A343B342534663400340A128A15AC21CB
:101138000A128A150A168A1193270A128A150A169C
:101148008A1112260A128A150A168A11C7250A1246
:101158008A1561300A168A1159250A128A15003033
:1011680083120313A400A5000430AB002B08A600CB
:101178006430A7000030A8000A168A11C8270A128E
:101188008A15013083120313A4000030A500013032
:10119800AB002B08A6000130A7000030A8000A16F3
:1011A8008A11C8270A128A15023083120313A40071
:1011B8000030A5000730AB002B08A600D030A700F0
:1011C8000730A8000A168A11C827080083120313DB
:1011D800A11B1929FC302005A40003302105A50016
:1011E8002508A3002408A200230DA30CA20C230D9C
:1011F800A30CA20C2208950003302005A40000309F
:101208002105A500171297122408A2000330031025
:10121800A20DFF3E031D0B290310220DA300230876
:1012280097049B011D129D1208002009A2002109A4
:10123800A300A20A0319A30AFC302205A400033064
:101248002305A5002508A3002408A200230DA30C4C
:10125800A20C230DA30CA20C22089B00033020052E
:10126800A40000302105A5001D129D122408A2002B
:1012780003300310A20DFF3E031D3D290310220D6C
:10128800A30023089D0495011712971208008312E2
:1012980003132E08A3002D08A2002C08A1002B0878
:1012A800A0000A128A1516220A128A15831203133D
:1012B8002108EA002008E9006A08803AFF00803027
:1012C8007F02031D692901306902031C75298312F5
:1012D80003136908963EE9006A080318013E003EB8
:1012E800802983120313EA1F812969086A3EE900ED
:1012F8006A080318013EFF3EEA006A08803AFF00C8
:1013080083307F02031D8A29E9306902031C922970
:10131800E83083120313E9000330EA008312031351
:101328006A08803AFF007C307F02031D9D2918302F
:1013380069020318A529183083120313E900FC3049
:10134800EA00831203136A08AC006908AB000800BE
:1013580083160313D401D50183120313ED01A301EE
:10136800A4012308A00002300310A00DFF3E031DB6
:10137800B829A0302007A10024082107A2002208CC
:101388008400831380010130A0002008A4070430E2
:101398002402031CB5290130A0002008A30704304B
:1013A8002302031CB4290130A0002008831603136C
:1013B800A100013083120313A00020088316031331
:1013C800A700013083120313A0002008831603131B
:1013D800AE00013083120313A00020088316031304
:1013E800A800831203136E08A000200883160313B5
:1013F800AB00831203136E08A000200883160313A2
:10140800AD00831203136E08A0002008831603138F
:10141800A400831203136E08A00020088316031388
:10142800A2000800031083120313220D230DA40049
:101438002408AA002A08031D2A2A0030A300003025
:10144800A2000030A1000030A00008002008A4007D
:101458002108A5002208A6002308A7001F300310B2
:10146800A70CA60CA50CA40CFF3E031D332A2408C8
:10147800A8002808A900A217FF30A005FF30A10581
:10148800FF30A2050030A3059630AA02AA1F612AE0
:101498002A08803A973E031C212A01300310A30C26
:1014A800A20CA10CA00CFF3E031D522A0130A4007F
:1014B8002408AA070319742A512A20302A0203187B
:1014C800212A2A080319742A0130A4000310A00D48
:1014D800A10DA20DA30DA40B6A2A0130AA02652A48
:1014E800290803190800A009A109A209A309A00A4B
:1014F8000319A10A0319A20A0319A30A08008312EF
:101508000313E8010530E4006408A00068080A161F
:101518008A11D7250A128A15933E8400831700087A
:1015280083120313E500840A0008E60065088316A1
:1015380003135202D000831203136608031C660AC1
:10154800831603135302D100053083120313E400FA
:101558006408A00068080A168A11D7250A128A1595
:10156800913E84008317000883120313E500840A60
:101578000008E6006608803AE7008316031351085E
:10158800803A831203136702031DD02A83160313BC
:1015980050088312031365020318052B05308312C4
:1015A8000313E4006408A00068080A168A11D72506
:1015B8000A128A15903E84008317000883120313C9
:1015C800E500650883160313D90059080A128A1121
:1015D8003C200A128A15053083120313E4006408BC
:1015E800A00068080A168A11D7250A128A15933EA0
:1015F800840083160313520883178000840A530853
:101608008000013083120313E4006408E807033004
:10161800680203180800862A83120313AA002A08FE
:10162800031DA51F272B2209AC002309AD0024099F
:10163800AE002509AF00AC0A0319AD0A0319AE0ABA
:101648000319AF0A2F2B2508AF002408AE00230882
:10165800AD002208AC002508240423042204031D3D
:101668003E2B0030A5000030A4000030A30000305D
:10167800A20008009630A6002608AB00FE302F0511
:1016880003196F2B0130A6002608AB0701300310A1
:10169800AF0CAE0CAD0CAC0CFF3E031D4B2B422B1C
:1016A8000130A6002608AB070130AC07003003184C
:1016B8000130AD07003003180130AE0700300318C1
:1016C8000130AF0701300310AF0CAE0CAD0CAC0C01
:1016D800FF3E031D672BFF302F050319832B542B67
:1016E80002302B02031C852B0130AB020130A6000F
:1016F8000310AC0DAD0DAE0DAF0DA60B7C2BAE1FC0
:10170800742B2B188F2BFF30AC05FF30AD057F30C5
:10171800AE05FF30AF050310AB0C2B08A600A701E0
:10172800A801A90118300310A60DA70DA80DA90D31
:10173800FF3E031D972B2608AC042708AD04280894
:10174800AE042908AF042A08031DA51FAC2BAF1748
:101758002F08A5002E08A4002D08A3002C08A2001D
:1017680008000430831203136C06031D412CEC019E
:10177800F801282C3A306B06031DC52BEC01EC0A46
:10178800282C0A168A1151250A128A15282C6B084A
:101798007906031DC52B0230122C6B080A168A1114
:1017A800BA260A128A158312031320082104031982
:1017B800C52B6B080A168A11A7250A128A15033049
:1017C80083120313122C3B306B06031D162C831651
:1017D800031729080A168A1160270A128A15831224
:1017E80003132008AC002C0883160317B2008312D9
:1017F8000313B0013008AA3E840083170008AC0028
:101808003008B33E84002C0880000130AC002C085E
:10181800B00706303002031CFE2B0430AC002C0845
:10182800EC00282C6B080A168A11D9260A128A1588
:1018380083120313200821040319C52B6B080A1609
:101848008A11A7250A128A1524308400B23083121F
:101858000313AC000408AD000830AE002C08840067
:1018680083170008AF00AC0A2D08840083132F08E3
:101878008000AD0AAE0B322C080083160317B201A4
:101888000A168A1149250A128A1583120313AC0015
:101898002C08EB006B0A0319672C6B080A168A11CF
:1018A800F9260A128A15831203136C08003A0319E1
:1018B800BE2B013A0319CB2B033A0319D12B013A5A
:1018C8000319E72BC52B0A168A1127260A128A152F
:1018D800282C0A128A15B5230A128A15D6308400D4
:1018E800831203132430E0000408E1000830E2000A
:1018F8006008840083130008E300E00A610884009C
:10190800831763088000E10AE20B7C2C8316031717
:10191800560803192C2DD7300A128A118F250A125E
:101928008A15831203135A0883160313B30083120C
:101938000313590883160313B200831203135808BC
:1019480083160313B1008312031357088316031376
:10195800B0002C2D83160313330883120313A3003E
:1019680083160313320883120313A200831603138A
:10197800310883120313A10083160313300883125E
:101988000313A0000A168A11882608000030831263
:101998000313A000A1000A168A118B250A128A15C2
:1019A8000A168A11EA2508008316031333088312DE
:1019B8000313A30083160313320883120313A20030
:1019C80083160313310883120313A100831603132C
:1019D800300883120313A0000A168A11A1260800F2
:1019E80083160313330883120313A3008316031308
:1019F800320883120313A2008316031331088312DB
:101A08000313A10083160313300883120313A000E5
:101A18000A168A116F2608008316031333088312E7
:101A28000313A30083160313320883120313A200BF
:101A380083160313310883120313A10083160313BB
:101A4800300883120313A0000A168A1156260800CC
:101A5800831603175608003A0319422D013A031951
:101A6800AE2C033A0319CA2C013A0319D82C073AA9
:101A78000319F42C013A0319102D422D0800831282
:101A88000313871A492D87164A2D87120A168A11B9
:101A98007E250A128A15831203132008A200210842
:101AA800A3000030A31BFF30A400A50001300A12D8
:101AB8008A1510230A128A15831203132508831620
:101AC8000313CF0083120313240883160313CE00D5
:101AD80083120313230883160313CD008312031301
:101AE800220883160313CC00403083120313A3008B
:101AF800A030A2000030A1000030A000831603131C
:101B08004F0883120313A700831603134E0883128A
:101B18000313A600831603134D0883120313A500AD
:101B2800831603134C0883120313A4000A128A15A0
:101B38005D260A128A15831203132308DA00220885
:101B4800D9002108D8002008D700831603134B08B2
:101B580083120313DE00831603134A088312031348
:101B6800DD0083160313490883120313DC00831670
:101B78000313480883120313DB000A168A11192776
:101B88000A128A15831203135A0883160313B7001F
:101B980083120313590883160313B6008312031321
:101BA800580883160313B5008312031357088316C6
:101BB8000313B400370883120313AC00831603130E
:101BC800360883120313AB008316031335088312F8
:101BD8000313AA0083160313340883120313A900FE
:101BE800831603133F0883120313B00083160313ED
:101BF8003E0883120313AF00831603133D088312B4
:101C08000313AE00831603133C0883120313AD00BD
:101C18000A128A114B200A128A15831203132C0800
:101C280083160313BB00831203132B0883160313B5
:101C3800BA00831203132A0883160313B900831208
:101C48000313290883160313B8003B0883120313F0
:101C5800AE00831603133A0883120313AD008316EC
:101C68000313390883120313AC00831603133808CF
:101C780083120313AB000A128A154B210A128A1524
:101C8800831203132C08EA002B08E9008B136A0857
:101C9800A1006908A0000A128A15EA200A128A150A
:101CA8008B1783120313871A5B2E87160800871277
:101CB80008008312031327088039A8002808B100F8
:101CC8002708A8002807A9002908B800A61B381467
:101CD800380803197D2E380A031D7A2E0030A70014
:101CE8000030A6000030A5000030A400A617A70108
:101CF800852E0030A7000030A6000030A500003077
:101D0800A40023088039A8002808B1062308A800E1
:101D18002807A9002908B900A21B39143908031992
:101D2800A32E390A031DA02E0030A3000030A20004
:101D38000030A1000030A000A217A301AB2E003094
:101D4800A3000030A2000030A1000030A00023084A
:101D5800220421042004031DCA2E0030A7000030ED
:101D6800A6000030A5000030A4008030A6047F3013
:101D7800A7043108A8002808A7042708A3002608F4
:101D8800A2002508A1002408A00008003808031DA7
:101D9800D62E0030A3000030A2000030A100003091
:101DA800A00008003808A800A9012908AB003908D4
:101DB8002802AA00031CAB032A087F3EB2002B08A6
:101DC8000318013E003EB3002708B0002608AF0004
:101DD8002508AE002408AD000030A7000030A6009A
:101DE8000030A5000030A4000030B7000030B60075
:101DF8000030B5000030B400B9011A3039020318B8
:101E0800492F39080319252F0130A8000310AD0DFB
:101E1800AE0DAF0DB00DA80B0A2F0130A8000310AE
:101E2800A40DA50DA60DA70DA80B132FB71B2414E1
:101E38000130A8000310B40DB50DB60DB70DA80BF1
:101E48001E2F23083002031D332F22082F02031DE3
:101E5800332F21082E02031D332F20082D02031CC7
:101E6800442F37172008AD022108031C210FAE02AA
:101E78002208031C220FAF022308031C230FB00201
:101E88000130A8002808B907012F30082F042E04B4
:101E98002D04031D3414A61B6C2F0130A800031059
:101EA800A40DA50DA60DA70DA80B532FB71B241421
:101EB8000130A8000310B40DB50DB60DB70DA80B71
:101EC8005E2FFF30B2070318B30AFF30B3074F2F56
:101ED800B901B71F852FFF303405A800FF3035053D
:101EE800A900FF303605AA007F303705AB002B0864
:101EF8002A042904280403192418832F852FB901DB
:101F0800B90A39080319B72F0130A407003003189C
:101F18000130A507003003180130A6070030031868
:101F28000130A707271CB72F2408A8002508A900F7
:101F38002608AA002708AB000130AC002B0DAB0C1B
:101F4800AA0CA90CA80CAC0BA22F2B08A7002A08D6
:101F5800A6002908A5002808A4000130B207031824
:101F6800B30A0030B3073308803AFF0080307F029D
:101F7800031DC02FFF303202031CD02FFF30831205
:101F88000313B2000030B3000030A7000030A600F1
:101F98000030A5000030A400831203133308803AF0
:101FA800FF0080307F02031DDB2F0130320203184F
:101FB800EA2F83120313B201B3010030A7000030E7
:101FC800A6000030A5000030A400B101831203135D
:101FD8003208A8002808B800381CF42FA617F82FD4
:101FE8007F30A8002808A6053808A8000310280C88
:081FF800A9002908A700BD2E75
:102A9200831203138C1E4F2D1A080800FF30080002
:102AA20083120313EC01F8010A168A11FD250800AE
:102AB20083120313A1002108A0002008F9000800D6
:102AC20064008001840A0406031900340406622D9E
:102AD2000A168A1198250A168A110A128A1599204D
:102AE20008000A168A1169250A168A118B170A121A
:102AF2008A1583220A168A11782D83160313550824
:102B020083120313A10083160313540883120313C1
:102B1200A000080083120313210883160313D500B3
:102B220083120313200883160313D40008008316AC
:102B32000313860198308700CB3083120313810080
:102B4200C1308316031381008B160800831203130E
:102B5200A1002108A0007808A93E8400200883175C
:102B620080000130A0002008F80708008316031334
:102B720057080319C12DD7018312031386120800C7
:102B8200D701D70A83120313861608008312031390
:102B9200EC01F80183160317B2010A168A11FD250A
:102BA2000A168A110A168A113E2608008312031396
:102BB200A300A201231CE12D2008A1002108A207E5
:102BC2000310A00D0310A30C2308031DDB2D220804
:102BD2000800003083160313C7000030C60000301F
:102BE200C5000030C4000030C3000030C200003015
:102BF200C1000030C000080083120313A1012108A4
:102C0200A93E8400831780012108B33E840080011D
:102C12000130A0002008A107073021020318080094
:102C2200002EF930831603139200831203139501C9
:102C32000C3097009B010C309D0004309200003054
:102C4200A000A1000A128A15EA20080083120313C9
:102C5200981C332E831603139812981683120313AB
:102C620018121816181D08001A08A000200883164A
:102C72000313D800981298160800403083160313E5
:102C82009900181518128312031398171816981220
:102C9200831603130C128C121813831203131813C6
:102CA200831603139812981608008312031323083D
:102CB20083160317BD00831203132208831603171A
:102CC200BC0083120313210883160317BB0083126F
:102CD2000313200883160317BA0008008312031394
:102CE200230883160317C1008312031322088316D5
:102CF2000317C00083120313210883160317BF00B2
:102D020083120313200883160317BE0008008312E0
:102D12000313230883160313CB0083120313220821
:102D220083160313CA0083120313210883160313A5
:102D3200C90083120313200883160313C800080076
:102D420083120313230883160313BF008312031392
:102D5200220883160313BE0083120313210883166D
:102D62000313BD0083120313200883160313BC0050
:102D7200080083120313A300703023060319D12E17
:102D8200683023060319D12E673023060319D12E8A
:102D9200693023060319D12E64302306031DD62E73
:102DA2000130A0000030A1000800A001A10108002C
:102DB20083120313A300073078020318ED2EF02EBE
:102DC2002E3023060319F42E30302302031CED2E7D
:102DD2003A302302031CF42EA001A10108002D3079
:102DE2002306031DE12E0130A0000030A1000800DF
:102DF20083120313A100831203130C1A162F981CBB
:102E02000A2F8316031398129816831203131812AB
:102E12001816181D142F1A08A00020088316031371
:102E2200D800981298166400FC2E21089900080018
:102E3200803083120313DA065E08C6005D08C500FF
:102E42005C08C4005B08C3005A08CA005908C900DC
:102E52005808C8005708C7000A128A116023831253
:102E620003134608DA004508D9004408D80043088D
:102E7200D700080083120313A800A401A5012008AB
:102E8200A200A3012208A6002308A700281C4F2F96
:102E92002608A4070318A50A2708A507013003106E
:102EA200A60DA70DFF3E031D502F0310A80C2808E6
:102EB200031D472F2508A1002408A0000800831243
:102EC2000313A30070302306031D6C2F0130A000F2
:102ED2000030A100080068302306031D752F023060
:102EE200A0000030A100080067302306031D7E2FDA
:102EF2000330A0000030A100080069302306031D42
:102F0200872F0430A0000030A1000800643023069F
:102F1200031D902F0530A0000030A1000800A00181
:102F2200A1010800003083160313C7000030C60059
:102F32000030C5000030C4000030C3000030C200C1
:102F42000030C1000030C0000030CF000030CE00A1
:102F52000030CD000030CC003F30BF008030BE00DA
:102F62000030BD000030BC00003083160317BD00E6
:102F72000030BC000030BB000030BA000030C1009D
:102F82000030C0000030BF000030BE0008008312D5
:102F920003132608A9000530AA002A08A000240865
:102FA2000A168A11D7250A168A11903E84008312C6
:102FB20003132908831780000530A9002908A000FF
:102FC20024080A168A11D7250A168A11913E84000E
:102FD20083120313270883178000840A28088000BD
:102FE2000530A9002908A00024080A168A11D7254D
:0E2FF200933E840083178001840A800108004A
:04400E00F3C0FFFFFD
:00000001FF
